:100000000C942A000C94C2070C94EF070C941C0863
:100010000C9447000C9447000C9447000C94470044
:100020000C9447000C9447000C9499100C944700D2
:100030000C9447000C9447000C9447000C94470024
:100040000C9447000C9447000C9447000C94470014
:100050000C94470011241FBECFE5D8E0DEBFCDBF12
:1000600010E0A8E6B0E001C01D92AB37B107E1F7A0
:1000700010E0A0E6B0E0E0E1F8E202C005900D92E9
:10008000A836B107D9F70E94CC100C9406140C9432
:100090000000EF92FF920F931F937B018C0120E0F1
:1000A00030E040E05FE40E94490388238CF0C801FF
:1000B000B70120E030E040E05FE40E94C1010E940F
:1000C000A9039B01AC01205030404040504806C07D
:1000D000C801B7010E94A9039B01AC01B901CA0183
:1000E0001F910F91FF90EF900895A0E0B0E0EBE733
:1000F000F0E00C94CF13DC012B01FA019C919230BB
:1001000008F439C1EB018881823008F433C194309E
:1001100069F4843009F02FC111969C91119789815F
:10012000981709F428C1A0E6B0E025C1843009F48D
:1001300021C18230A9F4923009F01DC19A01AD01AC
:1001400088E0EA010990AE01E90109929E0181501F
:10015000C1F7E201898111969C918923818308C1AD
:10016000923009F407C112962D903C901397EB0141
:100170008A819B811496AD90BD90CD90DC901797AD
:10018000EC80FD800E811F819101281B390BB90184
:1001900037FF04C066277727621B730B6032710537
:1001A0000CF061C0121613066CF537014801062EDB
:1001B00004C096948794779467940A94D2F721E0C8
:1001C00030E040E050E004C0220F331F441F551FB1
:1001D0006A95D2F721503040404050402E213F21B7
:1001E00040235123211531054105510521F021E01E
:1001F00030E040E050E079018A01E628F72808293C
:1002000019293CC0232BD1F1260E371E350146019A
:10021000062E04C096948794779467940A94D2F734
:1002200021E030E040E050E004C0220F331F441FC3
:10023000551F6A95D2F721503040404050402A2146
:100240003B214C215D21211531054105510521F04E
:1002500021E030E040E050E059016A01A628B728CB
:10026000C828D9280BC0821593052CF01C01AA249C
:10027000BB24650103C0EE24FF24870111969C91E5
:10028000D20111968C91981709F445C0992339F041
:10029000A80197012A193B094C095D0906C0A6016E
:1002A00095012E193F09400B510B57FD08C01182D3
:1002B0003382228224833583468357831DC081E0A5
:1002C00081833382228288279927DC01821B930B4A
:1002D000A40BB50B84839583A683B7830DC0220F2F
:1002E000331F441F551F24833583468357838281E0
:1002F000938101979383828324813581468157813D
:10030000DA01C9010197A109B1098F5F9F4FAF4F72
:10031000BF4328F30BC0918333822282EA0CFB1C7B
:100320000C1D1D1DE482F5820683178383E0808304
:10033000248135814681578157FF1AC0C901AA27F8
:1003400097FDA095BA2F81709070A070B0705695EF
:10035000479537952795822B932BA42BB52B848318
:100360009583A683B7838281938101969383828349
:10037000DF0101C0D201CD01CDB7DEB7E2E10C94BF
:10038000EB13A0E2B0E0E7ECF1E00C94DB1369833F
:100390007A838B839C832D833E834F835887E9E048
:1003A000EE2EF12CEC0EFD1ECE010196B7010E943F
:1003B000D2048E010F5E1F4FCE010596B8010E9438
:1003C000D2048A8991E089278A8BC701B801AE01DE
:1003D000475E5F4F0E9475000E94FD03A096E6E015
:1003E0000C94F713A0E2B0E0E8EFF1E00C94DB131B
:1003F00069837A838B839C832D833E834F835887C5
:10040000F9E0EF2EF12CEC0EFD1ECE010196B701A6
:100410000E94D2048E010F5E1F4FCE010596B801D7
:100420000E94D204C701B801AE01475E5F4F0E942F
:1004300075000E94FD03A096E6E00C94F713A0E27D
:10044000B0E0E5E2F2E00C94CF1369837A838B830A
:100450009C832D833E834F835887CE010196BE0136
:10046000675F7F4F0E94D204CE010596BE016F5E8A
:100470007F4F0E94D2049985923088F0898982301A
:10048000C8F0943019F4823051F404C0843029F457
:10049000923081F480E690E0C6C0923049F420E0CA
:1004A0009A858A89981321E02A87CE010996BBC0D4
:1004B000823049F420E09A858A89981321E02A8BBA
:1004C000CE014196B0C02D843E844F8458886D88FB
:1004D0007E888F88988CEE24FF248701AA24BB2471
:1004E000650140E050E060E070E0E0E0F0E0C10174
:1004F00081709070892BE9F0E60CF71C081D191D1E
:100500009A01AB012A0D3B1D4C1D5D1D80E090E062
:10051000A0E0B0E0E614F7040805190520F481E036
:1005200090E0A0E0B0E0BA01A901480F591F6A1F8E
:100530007B1FAA0CBB1CCC1CDD1C97FE08C081E0F5
:1005400090E0A0E0B0E0A82AB92ACA2ADB2A3196B6
:10055000E032F10549F0660C771C881C991C569412
:10056000479437942794C3CFFA85EA892B893C892D
:100570008B859C85280F391F2E5F3F4F17C0CA01FE
:1005800081709070892B61F016950795F794E79428
:1005900080E090E0A0E0B0E8E82AF92A0A2B1B2BC3
:1005A00076956795579547952F5F3F4F77FDE7CF36
:1005B0000CC0440F551F661F771F17FD4160EE0CDE
:1005C000FF1C001F111F21503040403090E05907A0
:1005D00090E0690790E4790760F32B8F3C8FDB0193
:1005E000CA018F779070A070B07080349105A1051A
:1005F000B10561F447FD0AC0E114F10401051105DC
:1006000029F0405C5F4F6F4F7F4F40781A8EFE1786
:1006100011F081E08A8F4D8F5E8F6F8F78A383E01A
:10062000898FCE0149960E94FD03A096E2E10C94C9
:10063000EB13A8E1B0E0EFE1F3E00C94DB13698386
:100640007A838B839C832D833E834F83588789E0F5
:10065000E82EF12CEC0EFD1ECE010196B7010E9492
:10066000D2048E010F5E1F4FCE010596B8010E9485
:10067000D2048985823040F08989823028F0C70110
:10068000B8010E944A0501C08FEF6896E6E00C941D
:10069000F713A8E1B0E0EFE4F3E00C94DB13698317
:1006A0007A838B839C832D833E834F83588789E095
:1006B000E82EF12CEC0EFD1ECE010196B7010E9432
:1006C000D2048E010F5E1F4FCE010596B8010E9425
:1006D000D2048985823040F08989823028F0C701B0
:1006E000B8010E944A0501C08FEF6896E6E00C94BD
:1006F000F713A8E1B0E0EFE7F3E00C94DB136983B4
:100700007A838B839C832D833E834F83588789E034
:10071000E82EF12CEC0EFD1ECE010196B7010E94D1
:10072000D2048E010F5E1F4FCE010596B8010E94C4
:10073000D2048985823040F08989823028F0C7014F
:10074000B8010E944A0501C081E06896E6E00C9479
:10075000F713ACE0B0E0EFEAF3E00C94DF13698349
:100760007A838B839C83CE010196BE016B5F7F4FA2
:100770000E94D2048D81823061F1823050F1843048
:1007800021F48E81882351F12EC02F81388537FDC9
:1007900020C06E812F3131051CF06623F9F023C093
:1007A0008EE190E0821B930B29853A854B855C8511
:1007B00004C056954795379527958A95D2F76623B5
:1007C000B1F050954095309521953F4F4F4F5F4F79
:1007D0000EC020E030E040E050E009C02FEF3FEFD6
:1007E0004FEF5FE704C020E030E040E050E8B9019F
:1007F000CA012C96E2E00C94FB13DF92EF92FF9279
:100800000F931F93FC01E480F58006811781D1804E
:100810008081823048F480E090E0A0E1B0E0E82AF6
:10082000F92A0A2B1B2BA5C0843009F49FC0823003
:1008300021F4EE24FF24870105C0E114F104010531
:10084000110519F4E0E0F0E096C0628173819FEF3A
:10085000623879070CF05BC022E83FEF261B370BAC
:100860002A3131052CF020E030E040E050E02AC091
:10087000B801A701022E04C0769567955795479554
:100880000A94D2F781E090E0A0E0B0E004C0880FC5
:10089000991FAA1FBB1F2A95D2F70197A109B10979
:1008A0008E219F21A023B1230097A105B10521F03E
:1008B00081E090E0A0E0B0E09A01AB01282B392B59
:1008C0004A2B5B2BDA01C9018F779070A070B07052
:1008D00080349105A105B10539F427FF09C0205CDA
:1008E0003F4F4F4F5F4F04C0215C3F4F4F4F5F4F13
:1008F000E0E0F0E02030A0E03A07A0E04A07A0E402
:100900005A0710F0E1E0F0E079018A0127C0603871
:10091000710564F5FB01E158FF4FD801C7018F77DE
:100920009070A070B07080349105A105B10539F4C4
:10093000E7FE0DC080E490E0A0E0B0E004C08FE3EB
:1009400090E0A0E0B0E0E80EF91E0A1F1B1F17FFA1
:1009500005C016950795F794E794319687E01695AC
:100960000795F794E7948A95D1F705C0EE24FF2404
:100970008701EFEFF0E06E2F679566276795902F60
:100980009F77D794DD24D7948E2F8695492F462BB9
:10099000582F5D29B701CA011F910F91FF90EF9069
:1009A000DF900895FC01DB01408151812281622F9B
:1009B0006F7770E0221F2227221F9381892F880FD3
:1009C000822B282F30E0991F9927991F11969C930D
:1009D000119721153105A9F54115510561057105DD
:1009E00011F482E037C082E89FEF13969C938E93B8
:1009F00012979A01AB0167E0220F331F441F551F66
:100A00006A95D1F783E08C930DC0220F331F441FEA
:100A1000551F12968D919C911397019713969C9355
:100A20008E931297203080E0380780E0480780E4FA
:100A3000580758F314962D933D934D935C93179755
:100A400008952F3F310579F4411551056105710570
:100A500019F484E08C93089564FF03C081E08C93C3
:100A600012C01C9210C02F57304013963C932E9307
:100A7000129783E08C9387E0440F551F661F771F02
:100A80008A95D1F7706414964D935D936D937C9322
:100A9000179708951F93DC01FB019C91923008F495
:100AA00047C08081823008F443C0943051F41196DD
:100AB0001C91843099F58181682F70E0611B710968
:100AC0003FC0843021F0923031F48230B9F181811D
:100AD000882389F12DC011961C9111978230F1F075
:100AE00081811817D9F412962D913C911397828128
:100AF00093818217930794F028173907BCF0149656
:100B00008D919D910D90BC91A02D248135814681C0
:100B10005781281739074A075B0718F4112341F05A
:100B20000AC082179307A407B50740F4112319F0F0
:100B300061E070E005C06FEF7FEF02C060E070E041
:100B4000CB011F910895DF93CF93CDB7DEB7789493
:100B5000CF91DF910895DF93CF93CDB7DEB7F894AF
:100B6000CF91DF910895DF93CF93CDB7DEB7A5E5A1
:100B7000B0E0E5E5F0E080818E7F8C93A5E5B0E004
:100B8000E5E5F0E0808182608C93ABE5B0E0EBE5D9
:100B9000F0E0808180648C93CF91DF910895DF93A2
:100BA000CF93CDB7DEB7A5E5B0E0E5E5F0E0808115
:100BB0008B7F8C93A5E5B0E0E5E5F0E0808188606F
:100BC0008C93ABE5B0E0EBE5F0E0808180688C933E
:100BD000CF91DF910895DF93CF93CDB7DEB7A4E532
:100BE000B0E0E4E5F0E080818F7B8C93ABE5B0E092
:100BF000EBE5F0E0808180628C93CF91DF910895E6
:100C0000DF93CF93CDB7DEB729970FB6F894DEBF49
:100C10000FBECDBF8A836B8381E089838A8188235D
:100C200009F05EC08B81282F30E0398728878885BE
:100C300099858230910529F1288539852330310540
:100C400034F4888599858130910561F047C0288505
:100C500039852330310521F18885998584309105C6
:100C600071F13CC0A5E5B0E0E5E5F0E080818E7F64
:100C70008C93A5E5B0E0E5E5F0E080818D7F8C9375
:100C8000B7C0A5E5B0E0E5E5F0E0808181608C9338
:100C9000A5E5B0E0E5E5F0E080818D7F8C93A8C00C
:100CA000A5E5B0E0E5E5F0E080818E7F8C93A5E5D9
:100CB000B0E0E5E5F0E0808182608C9399C0A5E525
:100CC000B0E0E5E5F0E0808181608C93A5E5B0E0DF
:100CD000E5E5F0E0808182608C938AC0198288C04B
:100CE0008A81813009F05EC08B81282F30E03F83FC
:100CF0002E838E819F818230910529F12E813F8143
:100D00002330310534F48E819F818130910561F06B
:100D100047C02E813F812330310521F18E819F8193
:100D20008430910571F13CC0A5E5B0E0E5E5F0E067
:100D300080818B7F8C93A5E5B0E0E5E5F0E08081D4
:100D4000877F8C9355C0A5E5B0E0E5E5F0E08081B4
:100D500084608C93A5E5B0E0E5E5F0E08081877FD5
:100D60008C9346C0A5E5B0E0E5E5F0E080818B7F9F
:100D70008C93A5E5B0E0E5E5F0E0808188608C9398
:100D800037C0A5E5B0E0E5E5F0E0808184608C93B4
:100D9000A5E5B0E0E5E5F0E0808188608C9328C0AF
:100DA000198226C08A81823011F58B81282F30E08C
:100DB0003D832C838C819D818330910531F02C8182
:100DC0003D812430310549F010C0A4E5B0E0E4E5F0
:100DD000F0E080818F7B8C930BC0A4E5B0E0E4E56C
:100DE000F0E0808180648C9303C0198201C0198275
:100DF000898129960FB6F894DEBF0FBECDBFCF9183
:100E0000DF910895DF93CF9300D000D0CDB7DEB748
:100E10008A8381E089838A81282F30E03C832B8379
:100E20008B819C818130910589F02B813C8122301E
:100E30003105A1F08B819C810097C1F4ABE5B0E056
:100E4000EBE5F0E0808180648C9311C0ABE5B0E00D
:100E5000EBE5F0E0808180688C9309C0ABE5B0E001
:100E6000EBE5F0E0808180628C9301C0198289817A
:100E70000F900F900F900F90CF91DF910895DF9317
:100E8000CF9300D000D0CDB7DEB78A8381E08983CD
:100E90008A81282F30E03C832B838B819C81813099
:100EA000910589F02B813C8122303105A1F08B81A5
:100EB0009C810097C1F4ABE5B0E0EBE5F0E0808108
:100EC0008F7B8C9311C0ABE5B0E0EBE5F0E0808167
:100ED0008F778C9309C0ABE5B0E0EBE5F0E0808163
:100EE0008F7D8C9301C0198289810F900F900F9094
:100EF0000F90CF91DF910895DF93CF9300D000D072
:100F000000D0CDB7DEB78A837C836B8381E0898391
:100F10008B819C81009751F18A81282F30E03E839C
:100F20002D838D819E818130910581F02D813E81BF
:100F30002230310591F08D819E810097A9F48B813B
:100F40009C81909369008093680012C08B819C8182
:100F500090936B0080936A000BC08B819C8190936F
:100F60006D0080936C0004C0198202C082E0898306
:100F7000898126960FB6F894DEBF0FBECDBFCF9104
:100F8000DF9108951F920F920FB60F9211242F93A5
:100F90003F934F935F936F937F938F939F93AF9301
:100FA000BF93EF93FF93DF93CF93CDB7DEB7E0917D
:100FB0006800F09169000995CF91DF91FF91EF9161
:100FC000BF91AF919F918F917F916F915F914F9161
:100FD0003F912F910F900FBE0F901F9018951F9269
:100FE0000F920FB60F9211242F933F934F935F935D
:100FF0006F937F938F939F93AF93BF93EF93FF93E1
:10100000DF93CF93CDB7DEB7E0916A00F0916B002C
:101010000995CF91DF91FF91EF91BF91AF919F9192
:101020008F917F916F915F914F913F912F910F9091
:101030000FBE0F901F9018951F920F920FB60F9230
:1010400011242F933F934F935F936F937F938F93CD
:101050009F93AF93BF93EF93FF93DF93CF93CDB75E
:10106000DEB7E0916C00F0916D000995CF91DF91B2
:10107000FF91EF91BF91AF919F918F917F916F9170
:101080005F914F913F912F910F900FBE0F901F9046
:101090001895DF93CF93CDB7DEB728970FB6F894A6
:1010A000DEBF0FBECDBF8A836B834C8381E0898313
:1010B0008C81882309F076C08A81282F30E0388718
:1010C0002F838F8198858130910559F12F81388543
:1010D000223031052CF48F819885009769F060C02B
:1010E0002F8138852230310589F18F8198858330B1
:1010F000910509F440C054C0AAE3B0E0EAE3F0E08F
:101100008081482F8B81282F30E081E090E0022EF3
:1011100002C0880F991F0A94E2F7809584238C936C
:10112000B7C0A7E3B0E0E7E3F0E08081482F8B8110
:10113000282F30E081E090E0022E02C0880F991F36
:101140000A94E2F7809584238C93A2C0A4E3B0E0D4
:10115000E4E3F0E08081482F8B81282F30E081E0AC
:1011600090E0022E02C0880F991F0A94E2F7809542
:1011700084238C938DC0A1E3B0E0E1E3F0E08081B3
:10118000482F8B81282F30E081E090E0022E02C0B2
:10119000880F991F0A94E2F7809584238C9378C076
:1011A000198276C08C81813009F071C08A81282F24
:1011B00030E03E832D838D819E818130910549F100
:1011C0002D813E81223031052CF48D819E81009746
:1011D00061F05BC02D813E812230310571F18D813E
:1011E0009E8183309105E9F150C0AAE3B0E0EAE3C3
:1011F000F0E08081482F8B81282F30E081E090E063
:10120000022E02C0880F991F0A94E2F7842B8C9358
:101210003FC0A7E3B0E0E7E3F0E08081482F8B8197
:10122000282F30E081E090E0022E02C0880F991F45
:101230000A94E2F7842B8C932BC0A4E3B0E0E4E3A0
:10124000F0E08081482F8B81282F30E081E090E012
:10125000022E02C0880F991F0A94E2F7842B8C9308
:1012600017C0A1E3B0E0E1E3F0E08081482F8B817B
:10127000282F30E081E090E0022E02C0880F991FF5
:101280000A94E2F7842B8C9303C0198201C019825F
:10129000898128960FB6F894DEBF0FBECDBFCF91DF
:1012A000DF910895DF93CF93CDB7DEB728970FB6C0
:1012B000F894DEBF0FBECDBF8A836B834C8381E081
:1012C00089838C81882309F076C08A81282F30E0B9
:1012D00038872F838F8198858130910559F12F812F
:1012E0003885223031052CF48F819885009769F07C
:1012F00060C02F8138852230310589F18F81988532
:101300008330910509F440C054C0ABE3B0E0EBE397
:10131000F0E08081482F8B81282F30E081E090E041
:10132000022E02C0880F991F0A94E2F78095842349
:101330008C93B7C0A8E3B0E0E8E3F0E08081482FE9
:101340008B81282F30E081E090E0022E02C0880FD0
:10135000991F0A94E2F7809584238C93A2C0A5E399
:10136000B0E0E5E3F0E08081482F8B81282F30E06A
:1013700081E090E0022E02C0880F991F0A94E2F7E4
:10138000809584238C938DC0A2E3B0E0E2E3F0E08B
:101390008081482F8B81282F30E081E090E0022E61
:1013A00002C0880F991F0A94E2F7809584238C93DA
:1013B00078C0198276C08C81813009F071C08A8131
:1013C000282F30E03E832D838D819E8181309105D1
:1013D00049F12D813E81223031052CF48D819E8191
:1013E000009761F05BC02D813E812230310571F1A3
:1013F0008D819E8183309105E9F150C0ABE3B0E06F
:10140000EBE3F0E08081482F8B81282F30E081E0F2
:1014100090E0022E02C0880F991F0A94E2F7842BF5
:101420008C933FC0A8E3B0E0E8E3F0E08081482F70
:101430008B81282F30E081E090E0022E02C0880FDF
:10144000991F0A94E2F7842B8C932BC0A5E3B0E09C
:10145000E5E3F0E08081482F8B81282F30E081E0A8
:1014600090E0022E02C0880F991F0A94E2F7842BA5
:101470008C9317C0A2E3B0E0E2E3F0E08081482F54
:101480008B81282F30E081E090E0022E02C0880F8F
:10149000991F0A94E2F7842B8C9303C0198201C030
:1014A0001982898128960FB6F894DEBF0FBECDBF92
:1014B000CF91DF910895DF93CF9300D000D00F92AA
:1014C000CDB7DEB78A836B8381E089838A81282F39
:1014D00030E03D832C838C819D8181309105D1F05A
:1014E0002C813D81223031052CF48C819D81009727
:1014F00061F01FC02C813D812230310581F08C814B
:101500009D818330910581F014C0EAE3F0E08B8186
:10151000808310C0E7E3F0E08B8180830BC0E4E3BD
:10152000F0E08B81808306C0E1E3F0E08B81808373
:1015300001C0198289810F900F900F900F900F902A
:10154000CF91DF910895DF93CF9300D000D00F9219
:10155000CDB7DEB78A836B8381E089838A81282FA8
:1015600030E03D832C838C819D8181309105D1F0C9
:101570002C813D81223031052CF48C819D81009796
:1015800061F01FC02C813D812230310581F08C81BA
:101590009D818330910581F014C0EBE3F0E08B81F5
:1015A000808310C0E8E3F0E08B8180830BC0E5E32B
:1015B000F0E08B81808306C0E2E3F0E08B818083E2
:1015C00001C0198289810F900F900F900F900F909A
:1015D000CF91DF910895DF93CF93CDB7DEB72797F3
:1015E0000FB6F894DEBF0FBECDBF8A836B835D83D9
:1015F0004C8381E089838C819D81009709F477C0B9
:101600008B81883008F073C08A81282F30E03F83B7
:101610002E834E815F814130510559F18E819F812A
:101620008230910534F42E813F812115310569F016
:101630005CC04E815F814230510579F18E819F817E
:101640008330910509F43DC050C0E9E3F0E08081AA
:10165000282F30E08B81882F90E0A90102C055959A
:1016600047958A95E2F7CA018170EC81FD818083FC
:1016700040C0E6E3F0E08081282F30E08B81882FA6
:1016800090E0A90102C0559547958A95E2F7CA01F5
:101690008170EC81FD8180832CC0E3E3F0E08081E8
:1016A000282F30E08B81882F90E0A90102C055954A
:1016B00047958A95E2F7CA018170EC81FD818083AC
:1016C00018C0E0E3F0E08081282F30E08B81882F84
:1016D00090E0A90102C0559547958A95E2F7CA01A5
:1016E0008170EC81FD81808304C0198202C082E098
:1016F0008983898127960FB6F894DEBF0FBECDBFD0
:10170000CF91DF910895DF93CF9300D000D000D028
:10171000CDB7DEB78A837C836B8381E089838B813D
:101720009C810097E9F18A81282F30E03E832D8348
:101730008D819E8181309105E1F02D813E812230A5
:1017400031052CF48D819E81009761F027C02D8199
:101750003E8122303105A1F08D819E81833091053B
:10176000B1F01CC0E9E3F0E08081EB81FC81808373
:1017700018C0E6E3F0E08081EB81FC81808311C03A
:10178000E3E3F0E08081EB81FC8180830AC0E0E349
:10179000F0E08081EB81FC81808303C0198201C06D
:1017A0001982898126960FB6F894DEBF0FBECDBF91
:1017B000CF91DF910895DF93CF9300D000D00F92A7
:1017C000CDB7DEB78A836B8381E089838B818830D4
:1017D00008F071C08A81282F30E03D832C838C81F2
:1017E0009D818130910549F12C813D812230310567
:1017F0002CF48C819D81009761F05BC02C813D8130
:101800002230310571F18C819D8183309105E9F1A0
:1018100050C0ABE3B0E0EBE3F0E08081482F8B8178
:10182000282F30E081E090E0022E02C0880F991F3F
:101830000A94E2F784278C933FC0A8E3B0E0E8E382
:10184000F0E08081482F8B81282F30E081E090E00C
:10185000022E02C0880F991F0A94E2F784278C9306
:101860002BC0A5E3B0E0E5E3F0E08081482F8B8159
:10187000282F30E081E090E0022E02C0880F991FEF
:101880000A94E2F784278C9317C0A2E3B0E0E2E366
:10189000F0E08081482F8B81282F30E081E090E0BC
:1018A000022E02C0880F991F0A94E2F784278C93B6
:1018B00003C0198201C0198289810F900F900F9087
:1018C0000F900F90CF91DF910895DF93CF93CDB715
:1018D000DEB72E970FB6F894DEBF0FBECDBF81E006
:1018E0000E94780D80E090E0A0E0B0E48B879C87B8
:1018F000AD87BE876B857C858D859E8520E030E039
:101900004AEF54E40E941F02DC01CB018F839887C9
:10191000A987BA876F81788589859A8520E030E02C
:1019200040E85FE30E94790388232CF481E090E093
:101930009E838D833FC06F81788589859A8520E05D
:101940003FEF4FE757E40E94190318164CF56B85DB
:101950007C858D859E8520E030E040E251E40E9448
:101960001F02DC01CB01BC01CD010E944900DC015A
:10197000CB019E838D830FC088EC90E09C838B838A
:101980008B819C810197F1F79C838B838D819E8154
:1019900001979E838D838D819E81009769F714C086
:1019A0006F81788589859A850E944900DC01CB0189
:1019B0009E838D838D819E819A83898389819A817B
:1019C0000197F1F79A8389832E960FB6F894DEBFBC
:1019D0000FBECDBFCF91DF910895DF93CF9300D09D
:1019E0000F92CDB7DEB79B838A8319820EC089819F
:1019F000282F30E08A819B81FC01E20FF31F808158
:101A00000E94160E89818F5F89838981282F30E09B
:101A10008A819B81FC01E20FF31F8081882339F7C3
:101A20000F900F900F90CF91DF910895DF93CF9398
:101A3000CDB7DEB727970FB6F894DEBF0FBECDBF88
:101A40009C838B836D834E832F838D81882F90E0C1
:101A5000880F991F880F991F880F991F8A838A8181
:101A600080648A838A810E94780D19820EC08981E0
:101A7000282F30E08B819C81FC01E20FF31F8081D5
:101A80000E94160E89818F5F89838981883078F35F
:101A90008E816F810E94580D8D810E94160E2796AF
:101AA0000FB6F894DEBF0FBECDBFCF91DF91089582
:101AB000DF93CF9300D00F92CDB7DEB78A836B83CD
:101AC0008A81882319F48B81898306C08A818130B9
:101AD00019F48B81805C89838981806889838981FD
:101AE0000E94780D0F900F900F90CF91DF91089585
:101AF000DF93CF93CDB7DEB72F970FB6F894DEBF45
:101B00000FBECDBF8F8783E060E040E00E945209A6
:101B100083E061E040E00E94520982E06F850E940C
:101B2000A30A83E062E041E00E94520980E090E075
:101B3000A0E0B0E48B879C87AD87BE876B857C85F2
:101B40008D859E8520E030E04AEF54E40E941F021C
:101B5000DC01CB018F839887A987BA876F8178854D
:101B600089859A8520E030E040E85FE30E947903B0
:101B700088232CF481E090E09E838D833FC06F81A9
:101B8000788589859A8520E03FEF4FE757E40E94EA
:101B9000190318164CF56B857C858D859E8520E094
:101BA00030E040E251E40E941F02DC01CB01BC01A5
:101BB000CD010E944900DC01CB019E838D830FC0C3
:101BC00088EC90E09C838B838B819C810197F1F75B
:101BD0009C838B838D819E8101979E838D838D81D4
:101BE0009E81009769F714C06F81788589859A85F1
:101BF0000E944900DC01CB019E838D838D819E81F3
:101C00009A83898389819A810197F1F79A838983DD
:101C100083E062E040E00E9452092F960FB6F894EC
:101C2000DEBF0FBECDBFCF91DF910895DF93CF937D
:101C3000CDB7DEB72F970FB6F894DEBF0FBECDBF7E
:101C40008F8783E060E041E00E94520983E061E019
:101C500040E00E94520982E06F850E94A30A83E05F
:101C600062E041E00E94520980E090E0A0E0B0E430
:101C70008B879C87AD87BE876B857C858D859E8590
:101C800020E030E04AEF54E40E941F02DC01CB0167
:101C90008F839887A987BA876F81788589859A8588
:101CA00020E030E040E85FE30E94790388232CF4D1
:101CB00081E090E09E838D833FC06F817885898528
:101CC0009A8520E03FEF4FE757E40E94190318166A
:101CD0004CF56B857C858D859E8520E030E040E26B
:101CE00051E40E941F02DC01CB01BC01CD010E9426
:101CF0004900DC01CB019E838D830FC088EC90E00E
:101D00009C838B838B819C810197F1F79C838B83D0
:101D10008D819E8101979E838D838D819E81009709
:101D200069F714C06F81788589859A850E9449007A
:101D3000DC01CB019E838D838D819E819A83898373
:101D400089819A810197F1F79A83898383E062E020
:101D500040E00E9452092F960FB6F894DEBF0FBEE6
:101D6000CDBFCF91DF910895DF93CF93CDB7DEB78D
:101D70002E970FB6F894DEBF0FBECDBF80E090E087
:101D8000A0E2B2E48B879C87AD87BE876B857C859C
:101D90008D859E8520E030E04AEF54E40E941F02CA
:101DA000DC01CB018F839887A987BA876F817885FB
:101DB00089859A8520E030E040E85FE30E9479035E
:101DC00088232CF481E090E09E838D833FC06F8157
:101DD000788589859A8520E03FEF4FE757E40E9498
:101DE000190318164CF56B857C858D859E8520E042
:101DF00030E040E251E40E941F02DC01CB01BC0153
:101E0000CD010E944900DC01CB019E838D830FC070
:101E100088EC90E09C838B838B819C810197F1F708
:101E20009C838B838D819E8101979E838D838D8181
:101E30009E81009769F714C06F81788589859A859E
:101E40000E944900DC01CB019E838D838D819E81A0
:101E50009A83898389819A810197F1F79A8389838B
:101E600088E30E94780D8CE00E94780D81E00E944A
:101E7000780D2E960FB6F894DEBF0FBECDBFCF9172
:101E8000DF9108950F931F93DF93CF93CDB7DEB704
:101E90006B970FB6F894DEBF0FBECDBF688F798FFA
:101EA0008A8F9B8F1B822DC08B81082F10E0888D1D
:101EB000998DAA8DBB8D2AE030E040E050E0BC0156
:101EC000CD010E94AD13DC01CB01282FCE01049679
:101ED000FC01E00FF11F2083888D998DAA8DBB8DA9
:101EE0002AE030E040E050E0BC01CD010E94AD139B
:101EF000DA01C901888F998FAA8FBB8F8B818F5F81
:101F00008B83888D998DAA8DBB8D0097A105B10516
:101F100059F68B8181508B838B81882F90E09A8337
:101F2000898310C029813A81CE010496FC01E20F19
:101F3000F31F8081805D0E94160E89819A8101972E
:101F40009A83898389819A81992364F76B960FB666
:101F5000F894DEBF0FBECDBFCF91DF911F910F91DF
:101F60000895DF93CF93CDB7DEB7A7E2B0E0E7E205
:101F7000F0E0808180648C93A7E2B0E0E7E2F0E0DB
:101F800080818F778C93A7E2B0E0E7E2F0E0808178
:101F900080628C93A6E2B0E0E6E2F0E08081887F88
:101FA0008C93A6E2B0E0E6E2F0E0808187608C935B
:101FB000A6E2B0E0E6E2F0E0808180688C93CF9109
:101FC000DF910895DF93CF930F92CDB7DEB789836A
:101FD000A7E2B0E0E7E2F0E08081807E8C93A7E2A8
:101FE000B0E0E7E2F0E090818981892B8C93A6E252
:101FF000B0E0E6E2F0E0808180648C93E6E2F0E01D
:10200000808182958F70882F90E08170907000970A
:10201000A9F3A6E2B0E0E6E2F0E0808180618C9373
:10202000E5E2F0E080810F90CF91DF910895DF939A
:10203000CF93CDB7DEB7A3E5B0E0E3E5F0E0808174
:102040008F7B8C93A3E5B0E0E3E5F0E080818860CE
:102050008C93A3E5B0E0E3E5F0E08081887F8C938A
:10206000A3E5B0E0E3E5F0E0808182608C93A9E530
:10207000B0E0E9E5F0E0808182608C93CF91DF9160
:102080000895DF93CF930F92CDB7DEB78983E2E552
:10209000F0E0898180830F90CF91DF910895DF93E5
:1020A000CF9300D00F92CDB7DEB79B838A8381E0B8
:1020B00089838A819B81009739F08A819B819093E3
:1020C0007A008093790002C082E0898389810F9031
:1020D0000F900F90CF91DF910895DF93CF930F92E0
:1020E000CDB7DEB78983ECE5F0E0898180830F907E
:1020F000CF91DF910895DF93CF9300D00F92CDB7AA
:10210000DEB79B838A8381E089838A819B810097E4
:1021100039F08A819B8190936F0080936E0002C09A
:1021200082E0898389810F900F900F90CF91DF918A
:1021300008951F920F920FB60F9211242F933F9381
:102140004F935F936F937F938F939F93AF93BF93BF
:10215000EF93FF93DF93CF93CDB7DEB780916E00FF
:1021600090916F00009729F0E0916E00F0916F0060
:102170000995CF91DF91FF91EF91BF91AF919F9121
:102180008F917F916F915F914F913F912F910F9020
:102190000FBE0F901F901895DF93CF9300D00F9232
:1021A000CDB7DEB780E060E041E00E94490880E002
:1021B00062E041E00E94490880E064E041E00E9462
:1021C000490883E062E040E00E94490883E063E060
:1021D00040E00E94490881E062E040E00E94490836
:1021E00083E062E041E00E94520983E063E041E065
:1021F0000E94520981E062E041E00E9452090E947F
:10220000171081E893E10E947B1087E993E10E9417
:102210007B1080EC0E9441108AEF0E946D1086E7CF
:1022200091E10E947B100E94A30580E00E940207BA
:1022300081E00E94020782E00E9402070E94B3052B
:102240000E94CF050E94EB0583E062E09E012F5FB4
:102250003F4FA9010E94EB0A9E012E5F3F4F83E092
:1022600063E0A9010E94EB0A9E012D5F3F4F81E0D0
:1022700062E0A9010E94EB0A8981882381F480E051
:1022800060E041E00E94520980E062E040E00E948C
:10229000520980E064E040E00E945209D5CF8A8173
:1022A000882381F480E060E040E00E94520980E0F1
:1022B00062E041E00E94520980E064E040E00E9458
:1022C0005209C2CF8B81882309F0BECF80E060E045
:1022D00040E00E94520980E062E040E00E94520922
:1022E00080E064E041E00E945209AECFDF93CF93DB
:1022F000CDB7DEB7C354D0400FB6F894DEBF0FBEE3
:10230000CDBF2091710030917200409173005091C7
:1023100074006091750070917600809177009091C3
:102320007800E22FE32BE42BE52BE62BE72BE82BC1
:10233000E92BEE2331F480917000882311F40E9480
:102340006B1380917100898F909172009A8F8091A8
:1023500073008B8F909174009C8F809175008D8F8E
:10236000909176009E8F809177008F8F909178006A
:1023700098A381E089A31AA21BA21CA21DA21EA2DF
:102380001FA218A6998D89A1980F99A791E099ABE2
:1023900089A5998D891708F019AA8A8D9AA1890FA4
:1023A0008AA781E08AAB9AA58A8D981708F01AAAA5
:1023B00099A98AA5980F9BAB91E09CAB8BA99AA594
:1023C000891708F01CAA8AA99CA9892B8AAB8BA91A
:1023D0008AA79B8D8BA1980F9BA791E09DAB8BA5A6
:1023E0009B8D891708F01DAA8AA99BA5890F8EAB22
:1023F00081E08FAB9EA98BA5981708F01FAA9DA915
:102400008FA9982B9DAB9EA99BA78C8D9CA1890F12
:102410008CA781E088AF9CA58C8D981708F018AE2A
:102420009DA98CA5980F99AF91E09AAF89AD9CA515
:10243000891708F01AAE88AD9AAD892B88AF89AD9F
:102440008CA79D8D8DA1980F9DA791E09BAF8DA529
:102450009D8D891708F01BAE88AD9DA5890F8CAFA7
:1024600081E08DAF9CAD8DA5981708F01DAE9BAD9A
:102470008DAD982B9BAF9CAD9DA78E8D9EA1890F96
:102480008EA781E08EAF9EA58E8D981708F01EAEA8
:102490009BAD8EA5980F9FAF91E021969FAF21979E
:1024A0008FAD9EA5891718F021961FAE21978EAD8E
:1024B00021969FAD2197892B8EAF8FAD8EA79F8DD3
:1024C0008FA1980F9FA791E022969FAF22978FA58B
:1024D0009F8D891718F022961FAE22978EAD9FA56B
:1024E000890F23968FAF239781E024968FAF24978F
:1024F00023969FAD23978FA5981718F024961FAEAB
:10250000249722969FAD229724968FAD2497982BDF
:1025100022969FAF229723969FAD23979FA788A1CE
:1025200098A5890F88AB22968FAD229798A9890F1D
:1025300088AB29A53AA54BA55CA56DA57EA58FA561
:1025400098A92093710030937200409373005093C8
:102550007400609375007093760080937700909379
:10256000780080917100898B909172009A8B809194
:1025700073008B8B909174009C8B809175008D8B78
:10258000909176009E8B809177008F8B9091780050
:10259000988F8989803CD9F49A89943DC1F48B89BC
:1025A0008130A9F49C89992391F48D89882379F449
:1025B0009E89992361F48F89882349F4988D992302
:1025C00031F481E0809370000E9481137AC0809181
:1025D00071008987909172009A87809173008B8730
:1025E000909174009C87809175008D879091760002
:1025F0009E87809177008F8790917800988B89854E
:102600008038D9F49A85993AC1F48B858330A9F43E
:102610009C85992391F48D85882379F49E8599234F
:1026200061F48F85882349F49889992331F482E0F5
:10263000809370000E94971344C080917100898339
:10264000909172009A83809173008B8390917400B3
:102650009C83809175008D83909176009E838091FC
:1026600077008F839091780098878981803449F52D
:102670009A819E3731F58B81853019F59C8199239C
:1026800001F58D818823E9F49E819923D1F48F810E
:102690008823B9F498859923A1F4109270001092C0
:1026A00071001092720010927300109274001092D8
:1026B00075001092760010927700109278000E94B8
:1026C0006B13CD5BDF4F0FB6F894DEBF0FBECDBFEF
:1026D000CF91DF910895DF93CF93CDB7DEB780E040
:1026E00060E041E00E94520980E062E040E00E9428
:1026F000520980E064E040E00E945209CF91DF91EE
:102700000895DF93CF93CDB7DEB780E060E040E07F
:102710000E94520980E062E041E00E94520980E09C
:1027200064E040E00E945209CF91DF910895DF9369
:10273000CF93CDB7DEB780E060E040E00E94520961
:1027400080E062E040E00E94520980E064E041E005
:102750000E945209CF91DF910895A1E21A2EAA1B7F
:10276000BB1BFD010DC0AA1FBB1FEE1FFF1FA21741
:10277000B307E407F50720F0A21BB30BE40BF50B3E
:10278000661F771F881F991F1A9469F760957095C7
:10279000809590959B01AC01BD01CF0108952F92CA
:1027A0003F924F925F926F927F928F929F92AF92E1
:1027B000BF92CF92DF92EF92FF920F931F93CF932E
:1027C000DF93CDB7DEB7CA1BDB0B0FB6F894DEBFC5
:1027D0000FBECDBF09942A88398848885F846E84EB
:1027E0007D848C849B84AA84B984C884DF80EE8035
:1027F000FD800C811B81AA81B981CE0FD11D0FB63E
:10280000F894DEBF0FBECDBFED010895F894FFCF61
:082810000000000000000000C0
:00000001FF
