:100000000C942A000C943C000C943C000C943C0092
:100010000C943C000C943C000C943C000C943C0070
:100020000C943C000C943C000C947A050C94AD05A7
:100030000C943C000C943C000C943C000C943C0050
:100040000C943C000C943C000C943C000C943C0040
:100050000C943C0011241FBECFE5D8E0DEBFCDBF1D
:1000600010E0A0E6B0E001C01D92A436B107E1F7B0
:100070000E9418060C9412070C940000DF93CF9393
:10008000CDB7DEB7A7E2B0E0E7E2F0E080818064C0
:100090008C93A7E2B0E0E7E2F0E080818F778C9369
:1000A000A7E2B0E0E7E2F0E0808180628C93A6E214
:1000B000B0E0E6E2F0E08081887F8C93A6E2B0E0D9
:1000C000E6E2F0E0808187608C93A6E2B0E0E6E2B1
:1000D000F0E0808180688C93CF91DF910895DF9369
:1000E000CF930F92CDB7DEB78983A7E2B0E0E7E206
:1000F000F0E08081807E8C93A7E2B0E0E7E2F0E060
:1001000090818981892B8C93A6E2B0E0E6E2F0E051
:10011000808180648C93E6E2F0E0808182958F702C
:10012000882F90E0817090700097A9F3A6E2B0E06C
:10013000E6E2F0E0808180618C93E5E2F0E080818E
:100140000F90CF91DF910895DF93CF93CDB7DEB7B6
:1001500028970FB6F894DEBF0FBECDBF8A836B839E
:100160004C8319828C81882309F077C08A81282FDB
:1001700030E038872F838F8198858130910559F140
:100180002F813885223031052CF48F819885009796
:1001900069F060C02F8138852230310589F18F8167
:1001A00098858330910509F440C054C0AAE3B0E0BB
:1001B000EAE3F0E08081482F8B81282F30E081E056
:1001C00090E0022E02C0880F991F0A94E2F78095F2
:1001D00084238C93BAC0A7E3B0E0E7E3F0E080812A
:1001E000482F8B81282F30E081E090E0022E02C062
:1001F000880F991F0A94E2F7809584238C93A5C0F9
:10020000A4E3B0E0E4E3F0E08081482F8B81282F65
:1002100030E081E090E0022E02C0880F991F0A941E
:10022000E2F7809584238C9390C0A1E3B0E0E1E3F2
:10023000F0E08081482F8B81282F30E081E090E032
:10024000022E02C0880F991F0A94E2F7809584233A
:100250008C937BC081E0898378C08C81813009F0E8
:1002600072C08A81282F30E03E832D838D819E814C
:100270008130910549F12D813E81223031052CF4E8
:100280008D819E81009761F05BC02D813E8122307F
:10029000310571F18D819E8183309105E9F150C066
:1002A000AAE3B0E0EAE3F0E08081482F8B81282FB9
:1002B00030E081E090E0022E02C0880F991F0A947E
:1002C000E2F7842B8C9341C0A7E3B0E0E7E3F0E0D2
:1002D0008081482F8B81282F30E081E090E0022E32
:1002E00002C0880F991F0A94E2F7842B8C932DC0CB
:1002F000A4E3B0E0E4E3F0E08081482F8B81282F75
:1003000030E081E090E0022E02C0880F991F0A942D
:10031000E2F7842B8C9319C0A1E3B0E0E1E3F0E0B5
:100320008081482F8B81282F30E081E090E0022EE1
:1003300002C0880F991F0A94E2F7842B8C9305C0A2
:1003400081E0898302C081E08983898128960FB684
:10035000F894DEBF0FBECDBFCF91DF910895DF933C
:10036000CF93CDB7DEB728970FB6F894DEBF0FBE98
:10037000CDBF8A836B834C8319828C81882309F0DB
:1003800077C08A81282F30E038872F838F81988526
:100390008130910559F12F813885223031052CF4B7
:1003A0008F819885009769F060C02F813885223051
:1003B000310589F18F8198858330910509F440C01A
:1003C00054C0ABE3B0E0EBE3F0E08081482F8B81D9
:1003D000282F30E081E090E0022E02C0880F991FA4
:1003E0000A94E2F7809584238C93BAC0A8E3B0E026
:1003F000E8E3F0E08081482F8B81282F30E081E016
:1004000090E0022E02C0880F991F0A94E2F78095AF
:1004100084238C93A5C0A5E3B0E0E5E3F0E0808100
:10042000482F8B81282F30E081E090E0022E02C01F
:10043000880F991F0A94E2F7809584238C9390C0CB
:10044000A2E3B0E0E2E3F0E08081482F8B81282F27
:1004500030E081E090E0022E02C0880F991F0A94DC
:10046000E2F7809584238C937BC081E0898378C0F8
:100470008C81813009F072C08A81282F30E03E8360
:100480002D838D819E818130910549F12D813E81A1
:10049000223031052CF48D819E81009761F05BC084
:1004A0002D813E812230310571F18D819E81833015
:1004B0009105E9F150C0ABE3B0E0EBE3F0E08081FF
:1004C000482F8B81282F30E081E090E0022E02C07F
:1004D000880F991F0A94E2F7842B8C9341C0A8E3FC
:1004E000B0E0E8E3F0E08081482F8B81282F30E0F6
:1004F00081E090E0022E02C0880F991F0A94E2F773
:10050000842B8C932DC0A5E3B0E0E5E3F0E080817F
:10051000482F8B81282F30E081E090E0022E02C02E
:10052000880F991F0A94E2F7842B8C9319C0A2E3D9
:10053000B0E0E2E3F0E08081482F8B81282F30E0AB
:1005400081E090E0022E02C0880F991F0A94E2F722
:10055000842B8C9305C081E0898302C081E089836C
:10056000898128960FB6F894DEBF0FBECDBFCF911C
:10057000DF910895DF93CF9300D000D00F92CDB7D5
:10058000DEB78A836B8319828A81282F30E03D830E
:100590002C838C819D8181309105D1F02C813D810E
:1005A000223031052CF48C819D81009761F01FC0B1
:1005B0002C813D812230310581F08C819D818330F9
:1005C000910581F014C0EAE3F0E08B81808311C0D3
:1005D000E7E3F0E08B8180830CC0E4E3F0E08B8103
:1005E000808307C0E1E3F0E08B81808302C081E07B
:1005F000898389810F900F900F900F900F90CF916A
:10060000DF910895DF93CF9300D000D00F92CDB744
:10061000DEB78A836B8319828A81282F30E03D837D
:100620002C838C819D8181309105D1F02C813D817D
:10063000223031052CF48C819D81009761F01FC020
:100640002C813D812230310581F08C819D81833068
:10065000910581F014C0EBE3F0E08B81808311C041
:10066000E8E3F0E08B8180830CC0E5E3F0E08B8170
:10067000808307C0E2E3F0E08B81808302C081E0E9
:10068000898389810F900F900F900F900F90CF91D9
:10069000DF910895DF93CF93CDB7DEB727970FB6DD
:1006A000F894DEBF0FBECDBF8A836B835D834C831E
:1006B00019828C819D81009709F478C08B818830E4
:1006C00008F074C08A81282F30E03F832E834E814A
:1006D0005F814130510559F18E819F8182309105B2
:1006E00034F42E813F812115310569F05CC04E81C3
:1006F0005F814230510579F18E819F818330910570
:1007000009F43DC050C0E9E3F0E08081282F30E0DB
:100710008B81882F90E0A90102C0559547958A9555
:10072000E2F7CA018170EC81FD81808341C0E6E37C
:10073000F0E08081282F30E08B81882F90E0A901A4
:1007400002C0559547958A95E2F7CA018170EC8100
:10075000FD8180832DC0E3E3F0E08081282F30E02D
:100760008B81882F90E0A90102C0559547958A9505
:10077000E2F7CA018170EC81FD81808319C0E0E35A
:10078000F0E08081282F30E08B81882F90E0A90154
:1007900002C0559547958A95E2F7CA018170EC81B0
:1007A000FD81808305C081E0898302C082E0898366
:1007B000898127960FB6F894DEBF0FBECDBFCF91CB
:1007C000DF910895DF93CF9300D000D00F92CDB783
:1007D000DEB78A836B8319828A81282F30E03D83BC
:1007E0002C838C819D818130910549F12C813D8143
:1007F000223031052CF48C819D81009761F05BC023
:100800002C813D812230310571F18C819D818330B5
:100810009105E9F150C0A9E3B0E0E9E3F0E080819F
:10082000482F8B81282F30E081E090E0022E02C01B
:10083000880F991F0A94E2F784278C933EC0A6E3A1
:10084000B0E0E6E3F0E08081482F8B81282F30E094
:1008500081E090E0022E02C0880F991F0A94E2F70F
:1008600084278C932AC0A3E3B0E0E3E3F0E0808127
:10087000482F8B81282F30E081E090E0022E02C0CB
:10088000880F991F0A94E2F784278C9316C0A0E37F
:10089000B0E0E0E3F0E08081482F8B81282F30E04A
:1008A00081E090E0022E02C0880F991F0A94E2F7BF
:1008B00084278C9302C081E0898389810F900F90F7
:1008C0000F900F900F90CF91DF910895DF93CF930A
:1008D000CDB7DEB7A3E5B0E0E3E5F0E0808180646A
:1008E0008C93A3E5B0E0E3E5F0E0808188608C9331
:1008F000A3E5B0E0E3E5F0E080818F7B8C93A3E596
:10090000B0E0E3E5F0E08081877F8C93A3E5B0E081
:10091000E3E5F0E0808180618C93A3E5B0E0E3E55E
:10092000F0E0808180628C93A3E5B0E0E3E5F0E045
:100930008081887F8C93A3E5B0E0E3E5F0E08081DF
:1009400082608C93CF91DF910895DF93CF93CDB7E1
:10095000DEB7AFE4B0E0EFE4F0E080818F7B8C9312
:10096000AFE4B0E0EFE4F0E0808180688C93AFE426
:10097000B0E0EFE4F0E080818E7F8C93AFE4B0E0F4
:10098000EFE4F0E0808182608C93AEE4B0E0EEE4CE
:10099000F0E0808188608C93AEE4B0E0EEE4F0E0BB
:1009A000808180618C93AEE4B0E0EEE4F0E0808181
:1009B0008E7F8C93AEE4B0E0EEE4F0E08081826064
:1009C0008C93AEE4B0E0EEE4F0E080818B7F8C931A
:1009D000CF91DF910895DF93CF930F92CDB7DEB71C
:1009E0008983E2E5F0E0898180830F90CF91DF91E8
:1009F0000895DF93CF9300D0CDB7DEB79A83898374
:100A0000E6E4F0E089819A81918380830F900F90D2
:100A1000CF91DF910895DF93CF9300D0CDB7DEB7AC
:100A20009A838983EAE4F0E089819A8191838083C3
:100A30000F900F90CF91DF910895DF93CF9300D067
:100A40000F92CDB7DEB79B838A8319828A819B81FF
:100A5000009739F08A819B819093630080936200B4
:100A600002C082E0898389810F900F900F90CF910F
:100A7000DF910895DF93CF9300D0CDB7DEB79A838F
:100A80008983ECE5F0E0898180830F900F90CF910E
:100A9000DF9108950F931F93DF93CF9300D0CDB7CD
:100AA000DEB79A8389830AE410E089819A81CC01B8
:100AB000A0E0B0E026ED36E040E050E0BC01CD0122
:100AC0000E94D106DC01CB0124EB30E040E050E095
:100AD000BC01CD010E94F006DA01C90182519D4F8F
:100AE000F801918380830F900F90CF91DF911F9138
:100AF0000F9108951F920F920FB60F9211242F930A
:100B00003F934F935F936F937F938F939F93AF9395
:100B1000BF93EF93FF93DF93CF93CDB7DEB7809171
:100B2000620090916300009729F0E0916200F091DB
:100B300063000995CF91DF91FF91EF91BF91AF9144
:100B40009F918F917F916F915F914F913F912F91E5
:100B50000F900FBE0F901F9018951F920F920FB617
:100B60000F9211242F933F934F935F936F937F9333
:100B70008F939F93AF93BF93EF93FF93DF93CF93A5
:100B8000CDB7DEB78091620090916300009729F0A5
:100B9000E0916200F09163000995CF91DF91FF91A0
:100BA000EF91BF91AF919F918F917F916F915F91E5
:100BB0004F913F912F910F900FBE0F901F9018955E
:100BC000DF93CF9300D000D0CDB7DEB79C838B836B
:100BD0001A828B819C81009709F119821BC089813F
:100BE000482F50E08981882F90E09C01220F331F0D
:100BF0008B819C81FC01E20FF31F20813181CA01AE
:100C0000880F991FFC01E05AFF4F318320838981AF
:100C10008F5F89838981833010F302C082E08A83E9
:100C20008A810F900F900F900F90CF91DF910895D0
:100C3000DF93CF9300D000D0CDB7DEB783E06FEF66
:100C40000E94BA0280E060E040E00E94A40080E0E0
:100C500060E041E00E94AF010E943E0080E00E94FF
:100C60006F00882F90E0A0E0B0E028E833E140E09A
:100C700050E0BC01CD010E94D106DC01CB01892FDF
:100C80009A2FAB2FBB2789839A83AB83BC8389813F
:100C90009A81AB81BC818B349105A105B10528F403
:100CA00083E060E00E940203D9CF89819A81AB8101
:100CB000BC81813722E0920720E0A20720E0B20742
:100CC00028F483E061E00E940203C8CF89819A8101
:100CD000AB81BC81823E24E0920720E0A20720E0A5
:100CE000B20728F483E063E00E940203B7CF898152
:100CF0009A81AB81BC81833527E0920720E0A2076F
:100D000020E0B20728F483E067E00E940203A6CF48
:100D100089819A81AB81BC81843C29E0920720E0E3
:100D2000A20720E0B20728F483E06FE00E940203EC
:100D300095CF89819A81AB81BC8185332CE0920764
:100D400020E0A20720E0B20728F483E06FE10E94D0
:100D5000020384CF89819A81AB81BC81863A2EE0DF
:100D6000920720E0A20720E0B20728F483E06FE3B7
:100D70000E94020373CF89819A81AB81BC81873144
:100D800021E1920720E0A20720E0B20728F483E0E7
:100D90006FE70E94020362CF83E06FEF0E940203BD
:100DA0005DCF629FD001739FF001829FE00DF11D26
:100DB000649FE00DF11D929FF00D839FF00D749FD5
:100DC000F00D659FF00D9927729FB00DE11DF91F81
:100DD000639FB00DE11DF91FBD01CF0111240895DE
:100DE000A1E21A2EAA1BBB1BFD010DC0AA1FBB1F2F
:100DF000EE1FFF1FA217B307E407F50720F0A21BA1
:100E0000B30BE40BF50B661F771F881F991F1A940D
:100E100069F760957095809590959B01AC01BD0137
:080E2000CF010895F894FFCF03
:00000001FF
