:100000000C942A000C943F000C943F000C943F0089
:100010000C943F000C943F000C943F000C943F0064
:100020000C943F000C943F000C943F000C943F0054
:100030000C943F000C943F000C943F000C943F0044
:100040000C943F000C943F000C943F000C943F0034
:100050000C943F0011241FBECFE5D8E0DEBFCDBF1A
:1000600010E0A0E6B0E0E6EBFEE202C005900D92E3
:10007000A23DB107D9F70E948E160C9459170C9423
:100080000000EF92FF920F931F937B018C0120E001
:1000900030E040E05FE40E94410388238CF0C80117
:1000A000B70120E030E040E05FE40E94B9010E9427
:1000B000A1039B01AC01205030404040504806C095
:1000C000C801B7010E94A1039B01AC01B901CA019B
:1000D0001F910F91FF90EF900895A0E0B0E0E3E74B
:1000E000F0E00C942217DC012B01FA019C91923074
:1000F00008F439C1EB018881823008F433C19430AF
:1001000069F4843009F02FC111969C91119789816F
:10011000981709F428C1AAEAB0E025C1843009F48F
:1001200021C18230A9F4923009F01DC19A01AD01BC
:1001300088E0EA010990AE01E90109929E0181502F
:10014000C1F7E201898111969C918923818308C1BD
:10015000923009F407C112962D903C901397EB0151
:100160008A819B811496AD90BD90CD90DC901797BD
:10017000EC80FD800E811F819101281B390BB90194
:1001800037FF04C066277727621B730B6032710547
:100190000CF061C0121613066CF537014801062EEB
:1001A00004C096948794779467940A94D2F721E0D8
:1001B00030E040E050E004C0220F331F441F551FC1
:1001C0006A95D2F721503040404050402E213F21C7
:1001D00040235123211531054105510521F021E02E
:1001E00030E040E050E079018A01E628F72808294C
:1001F00019293CC0232BD1F1260E371E35014601AB
:10020000062E04C096948794779467940A94D2F744
:1002100021E030E040E050E004C0220F331F441FD3
:10022000551F6A95D2F721503040404050402A2156
:100230003B214C215D21211531054105510521F05E
:1002400021E030E040E050E059016A01A628B728DB
:10025000C828D9280BC0821593052CF01C01AA24AC
:10026000BB24650103C0EE24FF24870111969C91F5
:10027000D20111968C91981709F445C0992339F051
:10028000A80197012A193B094C095D0906C0A6017E
:1002900095012E193F09400B510B57FD08C01182E3
:1002A0003382228224833583468357831DC081E0B5
:1002B00081833382228288279927DC01821B930B5A
:1002C000A40BB50B84839583A683B7830DC0220F3F
:1002D000331F441F551F24833583468357838281F0
:1002E000938101979383828324813581468157814D
:1002F000DA01C9010197A109B1098F5F9F4FAF4F83
:10030000BF4328F30BC0918333822282EA0CFB1C8B
:100310000C1D1D1DE482F5820683178383E0808314
:10032000248135814681578157FF1AC0C901AA2708
:1003300097FDA095BA2F81709070A070B0705695FF
:10034000479537952795822B932BA42BB52B848328
:100350009583A683B7838281938101969383828359
:10036000DF0101C0D201CD01CDB7DEB7E2E10C94CF
:100370003E17A0E2B0E0EFEBF1E00C942E1769839A
:100380007A838B839C832D833E834F835887E9E058
:10039000EE2EF12CEC0EFD1ECE010196B7010E944F
:1003A000CA048E010F5E1F4FCE010596B8010E9450
:1003B000CA048A8991E089278A8BC701B801AE01F6
:1003C000475E5F4F0E946D000E94F503A096E6E035
:1003D0000C944A17A0E2B0E0E0EFF1E00C942E1785
:1003E00069837A838B839C832D833E834F835887D5
:1003F000F9E0EF2EF12CEC0EFD1ECE010196B701B7
:100400000E94CA048E010F5E1F4FCE010596B801EF
:100410000E94CA04C701B801AE01475E5F4F0E9447
:100420006D000E94F503A096E6E00C944A17A0E246
:10043000B0E0EDE1F2E00C94221769837A838B83BC
:100440009C832D833E834F835887CE010196BE0146
:10045000675F7F4F0E94CA04CE010596BE016F5EA2
:100460007F4F0E94CA049985923088F08989823032
:10047000C8F0943019F4823051F404C0843029F467
:10048000923081F48AEA90E0C6C0923049F420E0CC
:100490009A858A89981321E02A87CE010996BBC0E4
:1004A000823049F420E09A858A89981321E02A8BCA
:1004B000CE014196B0C02D843E844F8458886D880B
:1004C0007E888F88988CEE24FF248701AA24BB2481
:1004D000650140E050E060E070E0E0E0F0E0C10184
:1004E00081709070892BE9F0E60CF71C081D191D2E
:1004F0009A01AB012A0D3B1D4C1D5D1D80E090E073
:10050000A0E0B0E0E614F7040805190520F481E046
:1005100090E0A0E0B0E0BA01A901480F591F6A1F9E
:100520007B1FAA0CBB1CCC1CDD1C97FE08C081E005
:1005300090E0A0E0B0E0A82AB92ACA2ADB2A3196C6
:10054000E032F10549F0660C771C881C991C569422
:10055000479437942794C3CFFA85EA892B893C893D
:100560008B859C85280F391F2E5F3F4F17C0CA010E
:1005700081709070892B61F016950795F794E79438
:1005800080E090E0A0E0B0E8E82AF92A0A2B1B2BD3
:1005900076956795579547952F5F3F4F77FDE7CF46
:1005A0000CC0440F551F661F771F17FD4160EE0CEE
:1005B000FF1C001F111F21503040403090E05907B0
:1005C00090E0690790E4790760F32B8F3C8FDB01A3
:1005D000CA018F779070A070B07080349105A1052A
:1005E000B10561F447FD0AC0E114F10401051105EC
:1005F00029F0405C5F4F6F4F7F4F40781A8EFE1797
:1006000011F081E08A8F4D8F5E8F6F8F78A383E02A
:10061000898FCE0149960E94F503A096E2E10C94E1
:100620003E17A8E1B0E0E7E1F3E00C942E176983F0
:100630007A838B839C832D833E834F83588789E005
:10064000E82EF12CEC0EFD1ECE010196B7010E94A2
:10065000CA048E010F5E1F4FCE010596B8010E949D
:10066000CA048985823040F08989823028F0C70128
:10067000B8010E94420501C08FEF6896E6E00C9435
:100680004A17A8E1B0E0E7E4F3E00C942E17698381
:100690007A838B839C832D833E834F83588789E0A5
:1006A000E82EF12CEC0EFD1ECE010196B7010E9442
:1006B000CA048E010F5E1F4FCE010596B8010E943D
:1006C000CA048985823040F08989823028F0C701C8
:1006D000B8010E94420501C08FEF6896E6E00C94D5
:1006E0004A17A8E1B0E0E7E7F3E00C942E1769831E
:1006F0007A838B839C832D833E834F83588789E045
:10070000E82EF12CEC0EFD1ECE010196B7010E94E1
:10071000CA048E010F5E1F4FCE010596B8010E94DC
:10072000CA048985823040F08989823028F0C70167
:10073000B8010E94420501C081E06896E6E00C9491
:100740004A17ACE0B0E0E7EAF3E00C9432176983B3
:100750007A838B839C83CE010196BE016B5F7F4FB2
:100760000E94CA048D81823061F1823050F1843060
:1007700021F48E81882351F12EC02F81388537FDD9
:1007800020C06E812F3131051CF06623F9F023C0A3
:100790008EE190E0821B930B29853A854B855C8521
:1007A00004C056954795379527958A95D2F76623C5
:1007B000B1F050954095309521953F4F4F4F5F4F89
:1007C0000EC020E030E040E050E009C02FEF3FEFE6
:1007D0004FEF5FE704C020E030E040E050E8B901AF
:1007E000CA012C96E2E00C944E17DF92EF92FF9232
:1007F0000F931F93FC01E480F58006811781D1805F
:100800008081823048F480E090E0A0E1B0E0E82A06
:10081000F92A0A2B1B2BA5C0843009F49FC0823013
:1008200021F4EE24FF24870105C0E114F104010541
:10083000110519F4E0E0F0E096C0628173819FEF4A
:10084000623879070CF05BC022E83FEF261B370BBC
:100850002A3131052CF020E030E040E050E02AC0A1
:10086000B801A701022E04C0769567955795479564
:100870000A94D2F781E090E0A0E0B0E004C0880FD5
:10088000991FAA1FBB1F2A95D2F70197A109B10989
:100890008E219F21A023B1230097A105B10521F04E
:1008A00081E090E0A0E0B0E09A01AB01282B392B69
:1008B0004A2B5B2BDA01C9018F779070A070B07062
:1008C00080349105A105B10539F427FF09C0205CEA
:1008D0003F4F4F4F5F4F04C0215C3F4F4F4F5F4F23
:1008E000E0E0F0E02030A0E03A07A0E04A07A0E412
:1008F0005A0710F0E1E0F0E079018A0127C0603882
:10090000710564F5FB01E158FF4FD801C7018F77EE
:100910009070A070B07080349105A105B10539F4D4
:10092000E7FE0DC080E490E0A0E0B0E004C08FE3FB
:1009300090E0A0E0B0E0E80EF91E0A1F1B1F17FFB1
:1009400005C016950795F794E794319687E01695BC
:100950000795F794E7948A95D1F705C0EE24FF2414
:100960008701EFEFF0E06E2F679566276795902F70
:100970009F77D794DD24D7948E2F8695492F462BC9
:10098000582F5D29B701CA011F910F91FF90EF9079
:10099000DF900895FC01DB01408151812281622FAB
:1009A0006F7770E0221F2227221F9381892F880FE3
:1009B000822B282F30E0991F9927991F11969C931D
:1009C000119721153105A9F54115510561057105ED
:1009D00011F482E037C082E89FEF13969C938E93C8
:1009E00012979A01AB0167E0220F331F441F551F76
:1009F0006A95D1F783E08C930DC0220F331F441FFB
:100A0000551F12968D919C911397019713969C9365
:100A10008E931297203080E0380780E0480780E40A
:100A2000580758F314962D933D934D935C93179765
:100A300008952F3F310579F4411551056105710580
:100A400019F484E08C93089564FF03C081E08C93D3
:100A500012C01C9210C02F57304013963C932E9317
:100A6000129783E08C9387E0440F551F661F771F12
:100A70008A95D1F7706414964D935D936D937C9332
:100A8000179708951F93DC01FB019C91923008F4A5
:100A900047C08081823008F443C0943051F41196ED
:100AA0001C91843099F58181682F70E0611B710978
:100AB0003FC0843021F0923031F48230B9F181812D
:100AC000882389F12DC011961C9111978230F1F085
:100AD00081811817D9F412962D913C911397828138
:100AE00093818217930794F028173907BCF0149666
:100AF0008D919D910D90BC91A02D248135814681D1
:100B00005781281739074A075B0718F4112341F06A
:100B10000AC082179307A407B50740F4112319F000
:100B200061E070E005C06FEF7FEF02C060E070E051
:100B3000CB011F910895DF93CF930F92CDB7DEB70E
:100B4000898381E060E040E00E94870A81E061E003
:100B500040E00E94870A80E069810E94DA0B81E010
:100B600062E041E00E94870A81E062E040E00E948A
:100B7000870A0F90CF91DF910895DF93CF930F9263
:100B8000CDB7DEB7898381E060E041E00E94870A4B
:100B900081E061E040E00E94870A80E069810E9474
:100BA000DA0B81E062E041E00E94870A81E062E0C6
:100BB00040E00E94870A0F90CF91DF910895DF9364
:100BC000CF93CDB7DEB7E8970FB6F894DEBF0FBE70
:100BD000CDBF80E090E0ACE0B2E48DAB9EABAFABBC
:100BE000B8AF6DA97EA98FA998AD20E030E04AEF9B
:100BF00054E40E941702DC01CB0189AB9AABABAB8A
:100C0000BCAB69A97AA98BA99CA920E030E040E897
:100C10005FE30E94710388232CF481E090E098AB9D
:100C20008FA73FC069A97AA98BA99CA920E03FEFB3
:100C30004FE757E40E94110318164CF56DA97EA9E1
:100C40008FA998AD20E030E040E251E40E94170205
:100C5000DC01CB01BC01CD010E944100DC01CB01D4
:100C600098AB8FA70FC088EC90E09EA78DA78DA5AD
:100C70009EA50197F1F79EA78DA78FA598A901972B
:100C800098AB8FA78FA598A9009769F714C069A999
:100C90007AA98BA99CA90E944100DC01CB0198ABE9
:100CA0008FA78FA598A99CA78BA78BA59CA501971B
:100CB000F1F79CA78BA788E30E949B0580E090E05A
:100CC000A0E8BFE38FA398A7A9A7BAA76FA178A5AB
:100CD00089A59AA520E030E04AEF54E40E9417026B
:100CE000DC01CB018BA39CA3ADA3BEA36BA17CA114
:100CF0008DA19EA120E030E040E85FE30E947103F7
:100D000088232CF481E090E09AA389A33FC06BA1D3
:100D10007CA18DA19EA120E03FEF4FE757E40E9408
:100D2000110318164CF56FA178A589A59AA520E0A6
:100D300030E040E251E40E941702DC01CB01BC012B
:100D4000CD010E944100DC01CB019AA389A30FC011
:100D500088EC90E098A38F8F8F8D98A10197F1F781
:100D600098A38F8F89A19AA101979AA389A389A19A
:100D70009AA1009769F714C06BA17CA18DA19EA1D7
:100D80000E944100DC01CB019AA389A389A19AA109
:100D90009E8F8D8F8D8D9E8D0197F1F79E8F8D8FFC
:100DA0008CE00E949B0580E090E0A0E8BFE3898F83
:100DB0009A8FAB8FBC8F698D7A8D8B8D9C8D20E047
:100DC00030E04AEF54E40E941702DC01CB018D8B26
:100DD0009E8BAF8BB88F6D897E898F89988D20E02F
:100DE00030E040E85FE30E94710388232CF481E047
:100DF00090E09C8B8B8B3FC06D897E898F89988D0D
:100E000020E03FEF4FE757E40E94110318164CF51E
:100E1000698D7A8D8B8D9C8D20E030E040E251E42D
:100E20000E941702DC01CB01BC01CD010E944100F0
:100E3000DC01CB019C8B8B8B0FC088EC90E09A8BF4
:100E4000898B89899A890197F1F79A8B898B8B898C
:100E50009C8901979C8B8B8B8B899C89009769F768
:100E600014C06D897E898F89988D0E944100DC01B4
:100E7000CB019C8B8B8B8B899C89988B8F878F85E3
:100E800098890197F1F7988B8F8781E00E949B05E5
:100E900080E090E0A0E0B0E48B879C87AD87BE87C0
:100EA0006B857C858D859E8520E030E04AEF54E49B
:100EB0000E941702DC01CB018F839887A987BA872C
:100EC0006F81788589859A8520E030E040E85FE38E
:100ED0000E94710388232CF481E090E09E838D832F
:100EE0003FC06F81788589859A8520E03FEF4FE785
:100EF00057E40E94110318164CF56B857C858D858F
:100F00009E8520E030E040E251E40E941702DC01BF
:100F1000CB01BC01CD010E944100DC01CB019E83CD
:100F20008D830FC088EC90E09C838B838B819C81A8
:100F30000197F1F79C838B838D819E8101979E831E
:100F40008D838D819E81009769F714C06F817885AC
:100F500089859A850E944100DC01CB019E838D83A7
:100F60008D819E819A83898389819A810197F1F786
:100F70009A838983E8960FB6F894DEBF0FBECDBF83
:100F8000CF91DF910895DF93CF9300D00F92CDB72B
:100F9000DEB79B838A8319820EC08981282F30E0B7
:100FA0008A819B81FC01E20FF31F80810E94BD05B5
:100FB00089818F5F89838981282F30E08A819B8195
:100FC000FC01E20FF31F8081882339F70F900F9007
:100FD0000F90CF91DF910895DF93CF9300D00F92C0
:100FE000CDB7DEB78A836B838A81882319F48B811E
:100FF000898306C08A81813019F48B81805C898362
:1010000089818058898389810E949B050F900F9068
:101010000F90CF91DF910895DF93CF93CDB7DEB7D7
:1010200027970FB6F894DEBF0FBECDBF9C838B838E
:101030006D834E832F838D81882F90E0880F991FB9
:10104000880F991F880F991F8A838A8180648A83F9
:101050008A810E949B0519820EC08981282F30E069
:101060008B819C81FC01E20FF31F80810E94BD05F2
:1010700089818F5F89838981883078F38E816F8140
:101080000E94EC078D810E94BD0527960FB6F8944B
:10109000DEBF0FBECDBFCF91DF910895DF93CF9319
:1010A000CDB7DEB7E1970FB6F894DEBF0FBECDBF68
:1010B0006EA77FA788AB99AB1D828D81882339F5F8
:1010C0008EA59FA5A8A9B9A989839A83AB83BC8360
:1010D00089819A81AB81BC812AE030E040E050E018
:1010E000BC01CD010E940017DC01CB0189839A83EA
:1010F000AB83BC838D81282F332727FD3095498111
:10110000CE010696FC01E20FF31F408340C08EA57E
:101110009FA5A8A9B9A92AE030E040E050E0BC01B1
:10112000CD010E940017DA01C9018EA79FA7A8ABC5
:10113000B9AB8EA59FA5A8A9B9A989839A83AB83CA
:10114000BC8389819A81AB81BC812AE030E040E098
:1011500050E0BC01CD010E940017DC01CB01898366
:101160009A83AB83BC838EA59FA5A8A9B9A9009734
:10117000A105B105C1F08D81282F332727FD3095BA
:101180004981CE010696FC01E20FF31F40838D8159
:101190008F5F8D838EA59FA5A8A9B9A90097A105EA
:1011A000B10509F08ACF8D8181508D8311C08D8169
:1011B000282F332727FD3095CE010696FC01E20F3C
:1011C000F31F8081805D0E94BD058D8181508D83DC
:1011D0008D81882364F7E1960FB6F894DEBF0FBEC9
:1011E000CDBFCF91DF910895DF93CF93CDB7DEB719
:1011F0002E970FB6F894DEBF0FBECDBF81E00E94E0
:101200009B0580E090E0A0E0B0E48B879C87AD87F1
:10121000BE876B857C858D859E8520E030E04AEF1A
:1012200054E40E941702DC01CB018F839887A987C1
:10123000BA876F81788589859A8520E030E040E81B
:101240005FE30E94710388232CF481E090E09E8389
:101250008D833FC06F81788589859A8520E03FEF37
:101260004FE757E40E94110318164CF56B857C85F7
:101270008D859E8520E030E040E251E40E94170217
:10128000DC01CB01BC01CD010E944100DC01CB019E
:101290009E838D830FC088EC90E09C838B838B8131
:1012A0009C810197F1F79C838B838D819E810197AF
:1012B0009E838D838D819E81009769F714C06F8115
:1012C000788589859A850E944100DC01CB019E8347
:1012D0008D838D819E819A83898389819A810197EB
:1012E000F1F79A8389832E960FB6F894DEBF0FBE6E
:1012F000CDBFCF91DF910895DF93CF93CDB7DEB708
:1013000028970FB6F894DEBF0FBECDBF8A836B83DC
:101310004C8319828C81882309F077C08A81282F19
:1013200030E038872F838F8198858130910559F17E
:101330002F813885223031052CF48F8198850097D4
:1013400069F060C02F8138852230310589F18F81A5
:1013500098858330910509F440C054C0AAE3B0E0F9
:10136000EAE3F0E08081482F8B81282F30E081E094
:1013700090E0022E02C0880F991F0A94E2F7809530
:1013800084238C93BAC0A7E3B0E0E7E3F0E0808168
:10139000482F8B81282F30E081E090E0022E02C0A0
:1013A000880F991F0A94E2F7809584238C93A5C037
:1013B000A4E3B0E0E4E3F0E08081482F8B81282FA4
:1013C00030E081E090E0022E02C0880F991F0A945D
:1013D000E2F7809584238C9390C0A1E3B0E0E1E331
:1013E000F0E08081482F8B81282F30E081E090E071
:1013F000022E02C0880F991F0A94E2F78095842379
:101400008C937BC081E0898378C08C81813009F026
:1014100072C08A81282F30E03E832D838D819E818A
:101420008130910549F12D813E81223031052CF426
:101430008D819E81009761F05BC02D813E812230BD
:10144000310571F18D819E8183309105E9F150C0A4
:10145000AAE3B0E0EAE3F0E08081482F8B81282FF7
:1014600030E081E090E0022E02C0880F991F0A94BC
:10147000E2F7842B8C9341C0A7E3B0E0E7E3F0E010
:101480008081482F8B81282F30E081E090E0022E70
:1014900002C0880F991F0A94E2F7842B8C932DC009
:1014A000A4E3B0E0E4E3F0E08081482F8B81282FB3
:1014B00030E081E090E0022E02C0880F991F0A946C
:1014C000E2F7842B8C9319C0A1E3B0E0E1E3F0E0F4
:1014D0008081482F8B81282F30E081E090E0022E20
:1014E00002C0880F991F0A94E2F7842B8C9305C0E1
:1014F00081E0898302C081E08983898128960FB6C3
:10150000F894DEBF0FBECDBFCF91DF910895DF937A
:10151000CF93CDB7DEB728970FB6F894DEBF0FBED6
:10152000CDBF8A836B834C8319828C81882309F019
:1015300077C08A81282F30E038872F838F81988564
:101540008130910559F12F813885223031052CF4F5
:101550008F819885009769F060C02F81388522308F
:10156000310589F18F8198858330910509F440C058
:1015700054C0ABE3B0E0EBE3F0E08081482F8B8117
:10158000282F30E081E090E0022E02C0880F991FE2
:101590000A94E2F7809584238C93BAC0A8E3B0E064
:1015A000E8E3F0E08081482F8B81282F30E081E054
:1015B00090E0022E02C0880F991F0A94E2F78095EE
:1015C00084238C93A5C0A5E3B0E0E5E3F0E080813F
:1015D000482F8B81282F30E081E090E0022E02C05E
:1015E000880F991F0A94E2F7809584238C9390C00A
:1015F000A2E3B0E0E2E3F0E08081482F8B81282F66
:1016000030E081E090E0022E02C0880F991F0A941A
:10161000E2F7809584238C937BC081E0898378C036
:101620008C81813009F072C08A81282F30E03E839E
:101630002D838D819E818130910549F12D813E81DF
:10164000223031052CF48D819E81009761F05BC0C2
:101650002D813E812230310571F18D819E81833053
:101660009105E9F150C0ABE3B0E0EBE3F0E080813D
:10167000482F8B81282F30E081E090E0022E02C0BD
:10168000880F991F0A94E2F7842B8C9341C0A8E33A
:10169000B0E0E8E3F0E08081482F8B81282F30E034
:1016A00081E090E0022E02C0880F991F0A94E2F7B1
:1016B000842B8C932DC0A5E3B0E0E5E3F0E08081BE
:1016C000482F8B81282F30E081E090E0022E02C06D
:1016D000880F991F0A94E2F7842B8C9319C0A2E318
:1016E000B0E0E2E3F0E08081482F8B81282F30E0EA
:1016F00081E090E0022E02C0880F991F0A94E2F761
:10170000842B8C9305C081E0898302C081E08983AA
:10171000898128960FB6F894DEBF0FBECDBFCF915A
:10172000DF910895DF93CF9300D000D00F92CDB713
:10173000DEB78A836B8319828A81282F30E03D834C
:101740002C838C819D8181309105D1F02C813D814C
:10175000223031052CF48C819D81009761F01FC0EF
:101760002C813D812230310581F08C819D81833037
:10177000910581F014C0EAE3F0E08B81808311C011
:10178000E7E3F0E08B8180830CC0E4E3F0E08B8141
:10179000808307C0E1E3F0E08B81808302C081E0B9
:1017A000898389810F900F900F900F900F90CF91A8
:1017B000DF910895DF93CF9300D000D00F92CDB783
:1017C000DEB78A836B8319828A81282F30E03D83BC
:1017D0002C838C819D8181309105D1F02C813D81BC
:1017E000223031052CF48C819D81009761F01FC05F
:1017F0002C813D812230310581F08C819D818330A7
:10180000910581F014C0EBE3F0E08B81808311C07F
:10181000E8E3F0E08B8180830CC0E5E3F0E08B81AE
:10182000808307C0E2E3F0E08B81808302C081E027
:10183000898389810F900F900F900F900F90CF9117
:10184000DF910895DF93CF93CDB7DEB727970FB61B
:10185000F894DEBF0FBECDBF8A836B835D834C835C
:1018600019828C819D81009709F478C08B81883022
:1018700008F074C08A81282F30E03F832E834E8188
:101880005F814130510559F18E819F8182309105F0
:1018900034F42E813F812115310569F05CC04E8101
:1018A0005F814230510579F18E819F8183309105AE
:1018B00009F43DC050C0E9E3F0E08081282F30E01A
:1018C0008B81882F90E0A90102C0559547958A9594
:1018D000E2F7CA018170EC81FD81808341C0E6E3BB
:1018E000F0E08081282F30E08B81882F90E0A901E3
:1018F00002C0559547958A95E2F7CA018170EC813F
:10190000FD8180832DC0E3E3F0E08081282F30E06B
:101910008B81882F90E0A90102C0559547958A9543
:10192000E2F7CA018170EC81FD81808319C0E0E398
:10193000F0E08081282F30E08B81882F90E0A90192
:1019400002C0559547958A95E2F7CA018170EC81EE
:10195000FD81808305C081E0898302C082E08983A4
:10196000898127960FB6F894DEBF0FBECDBFCF9109
:10197000DF910895DF93CF9300D000D00F92CDB7C1
:10198000DEB78A836B8319828A81282F30E03D83FA
:101990002C838C819D818130910549F12C813D8181
:1019A000223031052CF48C819D81009761F05BC061
:1019B0002C813D812230310571F18C819D818330F4
:1019C0009105E9F150C0A9E3B0E0E9E3F0E08081DE
:1019D000482F8B81282F30E081E090E0022E02C05A
:1019E000880F991F0A94E2F784278C933EC0A6E3E0
:1019F000B0E0E6E3F0E08081482F8B81282F30E0D3
:101A000081E090E0022E02C0880F991F0A94E2F74D
:101A100084278C932AC0A3E3B0E0E3E3F0E0808165
:101A2000482F8B81282F30E081E090E0022E02C009
:101A3000880F991F0A94E2F784278C9316C0A0E3BD
:101A4000B0E0E0E3F0E08081482F8B81282F30E088
:101A500081E090E0022E02C0880F991F0A94E2F7FD
:101A600084278C9302C081E0898389810F900F9035
:101A70000F900F900F90CF91DF910895DF93CF9348
:101A8000CDB7DEB7A2970FB6F894DEBF0FBECDBFBD
:101A90008FEF8B831D8281E08E8382E08F8383E0D2
:101AA000888784E0898785E08A8786E08B8787E05E
:101AB0008C87CE010D969F8F8E8FE2ECF0E0F9A31C
:101AC000E8A3F0E1FAA3E8A1F9A1008088A199A117
:101AD000019699A388A3EE8DFF8D00828E8D9F8D38
:101AE00001969F8F8E8F9AA191509AA3EAA1EE231F
:101AF00051F71A8268C08A81282F30E0CE010596FE
:101B0000FC01E20FF31F908183E0692F40E00E9407
:101B1000870A198243C08981282F30E0CE010996B7
:101B2000FC01E20FF31F90819E012C5F3F4F83E089
:101B3000692FA9010E94220C8C81882361F589817B
:101B4000282F30E08A81482F50E0220F331F220FC8
:101B5000331FCE010196820F931F840F951FFC0146
:101B60003C9680818B8311C08981282F30E0CE0183
:101B70000996FC01E20FF31F90819E012C5F3F4FFD
:101B800083E0692FA9010E94220C8C81882361F3D4
:101B9000FB81FD8F1EC089818F5F8983898184309D
:101BA00008F4B9CF8A81282F30E0CE010596FC01D8
:101BB000E20FF31F908183E0692F41E00E94870AC2
:101BC0008A818F5F8A838A81843008F494CF8B81E5
:101BD0008D8F8D8DA2960FB6F894DEBF0FBECDBF50
:101BE000CF91DF910895DF93CF93CDB7DEB72E97D6
:101BF0000FB6F894DEBF0FBECDBF81E00E949B05FB
:101C000080E090E0A0E0B0E48B879C87AD87BE8742
:101C10006B857C858D859E8520E030E04AEF54E41D
:101C20000E941702DC01CB018F839887A987BA87AE
:101C30006F81788589859A8520E030E040E85FE310
:101C40000E94710388232CF481E090E09E838D83B1
:101C50003FC06F81788589859A8520E03FEF4FE707
:101C600057E40E94110318164CF56B857C858D8511
:101C70009E8520E030E040E251E40E941702DC0142
:101C8000CB01BC01CD010E944100DC01CB019E8350
:101C90008D830FC088EC90E09C838B838B819C812B
:101CA0000197F1F79C838B838D819E8101979E83A1
:101CB0008D838D819E81009769F714C06F8178852F
:101CC00089859A850E944100DC01CB019E838D832A
:101CD0008D819E819A83898389819A810197F1F709
:101CE0009A8389832E960FB6F894DEBF0FBECDBFC0
:101CF000CF91DF910895DF93CF93CDB7DEB7609793
:101D00000FB6F894DEBF0FBECDBF0E943E0D882FE8
:101D100090E0A0E0B0E08D839E83AF83B8878D8193
:101D20009E81AF81B8858F3F9105A105B10569F30B
:101D30008D819E81AF81B8858D879E87AF87B88B57
:101D40008D859E85AF85B8898F329105A105B10536
:101D500009F45BC08D859E85AF85B8898033910578
:101D6000A105B105E0F48D859E85AF85B8898B32DC
:101D70009105A105B10531F18D859E85AF85B889A5
:101D80008D329105A105B10509F18D859E85AF853F
:101D9000B8898A329105A105B105E1F03AC08D8577
:101DA0009E85AF85B8898D339105A105B105B1F048
:101DB0008D859E85AF85B88983369105A105B105CE
:101DC00089F027C08BE20E94BD052BC08DE20E94E6
:101DD000BD0527C08AE20E94BD0523C08DE30E9495
:101DE000BD051FC00E94F4080E947B0EDC01CB01E0
:101DF00089839A83AB83BC8389819A81AB81BC81BF
:101E000089879A87AB87BC8714C08FE20E94BD0583
:101E100008C08D819E81AF81B885BC01CD010E9433
:101E20004E088D819E81AF81B88589879A87AB875F
:101E3000BC8789859A85AB85BC85BC01CD01609640
:101E40000FB6F894DEBF0FBECDBFCF91DF910895DE
:101E5000DF93CF93CDB7DEB7C354D0400FB6F8941D
:101E6000DEBF0FBECDBFFE01ED5BFF4F80838AEB6F
:101E700090E0FE01ED5BFF4F61E0408120E00E94B9
:101E80000C088AEB90E0FE01ED5BFF4F62E04081C1
:101E90002FE00E940C0882EB90E0FE01ED5BFF4F0B
:101EA00063E0408121E00E940C080E943E0DFE018B
:101EB000EE5BFF4F8083FE01EE5BFF4F80818F3F23
:101EC000A1F3FE01EE5BFF4F80818B3209F0D5C29A
:101ED000FE01EF5BFF4F81E08083C8C282EB90E0A0
:101EE000FE01ED5BFF4FDE01AF5BBF4F63E0408162
:101EF0002C910E940C0880E090E0AAEFB3E48DAB37
:101F00009EABAFABB8AF6DA97EA98FA998AD20E00D
:101F100030E04AEF54E40E941702DC01CB0189ABA8
:101F20009AABABABBCAB69A97AA98BA99CA920E001
:101F300030E040E85FE30E94710388232CF481E0E5
:101F400090E098AB8FA73FC069A97AA98BA99CA9FB
:101F500020E03FEF4FE757E40E94110318164CF5BD
:101F60006DA97EA98FA998AD20E030E040E251E450
:101F70000E941702DC01CB01BC01CD010E9441008F
:101F8000DC01CB0198AB8FA70FC088EC90E09EA737
:101F90008DA78DA59EA50197F1F79EA78DA78FA56B
:101FA00098A9019798AB8FA78FA598A9009769F773
:101FB00014C069A97AA98BA99CA90E944100DC01DF
:101FC000CB0198AB8FA78FA598A99CA78BA78BA5B2
:101FD0009CA50197F1F79CA78BA7FE01ED5BFF4F36
:101FE000DE01AF5BBF4F80816C910E94EC0780E205
:101FF0000E94BD05FE01EF5BFF4F80818E3009F02E
:102000002CC282EB90E0FE01ED5BFF4FDE01AF5B87
:10201000BF4F63E040812C910E940C08FE01FD96A9
:1020200010821182128213820E943E0DFE01EE5B2D
:10203000FF4F8083FE01FD9680819181A281B38153
:102040000196A11DB11DFE01FD9680839183A2839F
:10205000B383FE01EE5BFF4F80818D3271F0FE0194
:10206000FD9680819181A281B381843C29E0920711
:1020700020E0A20720E0B207B8F2FE01EE5BFF4FBE
:1020800080818D3209F47FC00E94F30D80E065E00D
:102090000E94EC0780E690E00E94C30780E090E099
:1020A000AAE7B4E48FA398A7A9A7BAA76FA178A5B8
:1020B00089A59AA520E030E04AEF54E40E94170277
:1020C000DC01CB018BA39CA3ADA3BEA36BA17CA120
:1020D0008DA19EA120E030E040E85FE30E94710303
:1020E00088232CF481E090E09AA389A33FC06BA1E0
:1020F0007CA18DA19EA120E03FEF4FE757E40E9415
:10210000110318164CF56FA178A589A59AA520E0B2
:1021100030E040E251E40E941702DC01CB01BC0137
:10212000CD010E944100DC01CB019AA389A30FC01D
:1021300088EC90E098A38F8F8F8D98A10197F1F78D
:1021400098A38F8F89A19AA101979AA389A389A1A6
:102150009AA1009769F714C06BA17CA18DA19EA1E3
:102160000E944100DC01CB019AA389A389A19AA115
:102170009E8F8D8F8D8D9E8D0197F1F79E8F8D8F08
:102180000E94F30D7AC1FE01EE5BFF4F80818D321C
:1021900009F063C1FE01EF5BFF4F8EE0808356C103
:1021A00082EB90E0FE01ED5BFF4FDE01AF5BBF4FC6
:1021B00063E040812C910E940C0880E090E0AAEF3F
:1021C000B3E4898F9A8FAB8FBC8F698D7A8D8B8D9D
:1021D0009C8D20E030E04AEF54E40E941702DC01BD
:1021E000CB018D8B9E8BAF8BB88F6D897E898F894C
:1021F000988D20E030E040E85FE30E94710388237F
:102200002CF481E090E09C8B8B8B3FC06D897E89A4
:102210008F89988D20E03FEF4FE757E40E9411032C
:1022200018164CF5698D7A8D8B8D9C8D20E030E0F1
:1022300040E251E40E941702DC01CB01BC01CD0158
:102240000E944100DC01CB019C8B8B8B0FC088EC82
:1022500090E09A8B898B89899A890197F1F79A8BFB
:10226000898B8B899C8901979C8B8B8B8B899C8913
:10227000009769F714C06D897E898F89988D0E94B7
:102280004100DC01CB019C8B8B8B8B899C89988BCB
:102290008F878F8598890197F1F7988B8F87FE013B
:1022A000ED5BFF4FDE01AF5BBF4F80816C910E9401
:1022B000EC0780E20E94BD05FE01EF5BFF4F8081CD
:1022C000813009F0BAC082EB90E0FE01ED5BFF4F78
:1022D000DE01AF5BBF4F63E040812C910E940C0890
:1022E00019AE1AAE1BAE1CAE0E943E0DFE01EE5B97
:1022F000FF4F808389AD9AADABADBCAD0196A11DFA
:10230000B11D89AF9AAFABAFBCAFFE01EE5BFF4F23
:1023100080818B3261F089AD9AADABADBCAD843CB0
:1023200029E0920720E0A20720E0B207E8F2FE01D0
:10233000EE5BFF4F80818B3209F47FC00E94F30D6A
:1023400080E065E00E94EC0780E690E00E94C30711
:1023500080E090E0AAE7B4E48B879C87AD87BE87D6
:102360006B857C858D859E8520E030E04AEF54E4C6
:102370000E941702DC01CB018F839887A987BA8757
:102380006F81788589859A8520E030E040E85FE3B9
:102390000E94710388232CF481E090E09E838D835A
:1023A0003FC06F81788589859A8520E03FEF4FE7B0
:1023B00057E40E94110318164CF56B857C858D85BA
:1023C0009E8520E030E040E251E40E941702DC01EB
:1023D000CB01BC01CD010E944100DC01CB019E83F9
:1023E0008D830FC088EC90E09C838B838B819C81D4
:1023F0000197F1F79C838B838D819E8101979E834A
:102400008D838D819E81009769F714C06F817885D7
:1024100089859A850E944100DC01CB019E838D83D2
:102420008D819E819A83898389819A810197F1F7B1
:102430009A8389830E94F30D20C0DE01AF5BBF4FFA
:10244000FE01EF5BFF4F808181508C93FE01EF5BBB
:10245000FF4F8081882309F0A3CEDE01AF5BBF4F21
:10246000FE01EF5BFF4F80818F5F8C93FE01EF5B7E
:10247000FF4F80818F3008F431CDCD5BDF4F0FB639
:10248000F894DEBF0FBECDBFCF91DF910895DF93EB
:10249000CF93CDB7DEB780E060E00E94EC0787E61F
:1024A00090E00E94C30781E060E00E94EC0786E7AD
:1024B00090E00E94C307CF91DF910895DF93CF93FF
:1024C000CDB7DEB780E060E00E94EC0785E890E0E1
:1024D0000E94C30781E060E00E94EC0784E990E07D
:1024E0000E94C307CF91DF910895DF93CF9300D06F
:1024F000CDB7DEB70E943E0D8A838A81883091F481
:1025000019820E94F30D8AEB90E061E0498120E09E
:102510000E940C088AEB90E062E049812FE00E9463
:102520000C0815C08A81853091F481E089830E946E
:10253000F30D8AEB90E061E0498120E00E940C08F5
:102540008AEB90E062E049812FE00E940C080F9036
:102550000F90CF91DF910895DF93CF93CDB7DEB782
:102560006D970FB6F894DEBF0FBECDBF81E08D8FA3
:1025700003C182EB90E063E040E02D8D0E940C08E7
:1025800080E090E0AAEFB3E4898F9A8FAB8FBC8F85
:10259000698D7A8D8B8D9C8D20E030E04AEF54E47C
:1025A0000E941702DC01CB018D8B9E8BAF8BB88F05
:1025B0006D897E898F89988D20E030E040E85FE367
:1025C0000E94710388232CF481E090E09C8B8B8B1C
:1025D0003FC06D897E898F89988D20E03FEF4FE75E
:1025E00057E40E94110318164CF5698D7A8D8B8D76
:1025F0009C8D20E030E040E251E40E941702DC01B3
:10260000CB01BC01CD010E944100DC01CB019C8BC0
:102610008B8B0FC088EC90E09A8B898B89899A8983
:102620000197F1F79A8B898B8B899C8901979C8BF9
:102630008B8B8B899C89009769F714C06D897E8983
:102640008F89988D0E944100DC01CB019C8B8B8B84
:102650008B899C89988B8F878F8598890197F1F753
:10266000988B8F8780E06D8D0E94EC0780E20E943E
:10267000BD0582EB90E063E041E02D8D0E940C08E7
:1026800080E090E0AAEFB3E48B879C87AD87BE879C
:102690006B857C858D859E8520E030E04AEF54E493
:1026A0000E941702DC01CB018F839887A987BA8724
:1026B0006F81788589859A8520E030E040E85FE386
:1026C0000E94710388232CF481E090E09E838D8327
:1026D0003FC06F81788589859A8520E03FEF4FE77D
:1026E00057E40E94110318164CF56B857C858D8587
:1026F0009E8520E030E040E251E40E941702DC01B8
:10270000CB01BC01CD010E944100DC01CB019E83C5
:102710008D830FC088EC90E09C838B838B819C81A0
:102720000197F1F79C838B838D819E8101979E8316
:102730008D838D819E81009769F714C06F817885A4
:1027400089859A850E944100DC01CB019E838D839F
:102750008D819E819A83898389819A810197F1F77E
:102760009A83898381E06D8D0E94EC0780E20E944C
:10277000BD058D8D8F5F8D8F8D8D8F3008F4F9CED7
:102780006D960FB6F894DEBF0FBECDBFCF91DF912F
:102790000895DF93CF93CDB7DEB7A8970FB6F8941F
:1027A000DEBF0FBECDBF1DA21CA281E08BA348C11E
:1027B0008EE190E09AA389A396C00E943E0D8EA35D
:1027C0008EA1883011F41DA205C08EA1853011F4B0
:1027D00081E08DA30E94F30D8AEB90E061E04DA1B2
:1027E00020E00E940C088AEB90E062E04DA12FE00F
:1027F0000E940C0882EB90E063E04CA12BA10E94A8
:102800000C0880E090E0A0E2B1E4898F9A8FAB8F52
:10281000BC8F698D7A8D8B8D9C8D20E030E04AEFE6
:1028200054E40E941702DC01CB018D8B9E8BAF8B91
:10283000B88F6D897E898F89988D20E030E040E8DF
:102840005FE30E94710388232CF481E090E09C8B6D
:102850008B8B3FC06D897E898F89988D20E03FEFFB
:102860004FE757E40E94110318164CF5698D7A8DD5
:102870008B8D9C8D20E030E040E251E40E941702F5
:10288000DC01CB01BC01CD010E944100DC01CB0188
:102890009C8B8B8B0FC088EC90E09A8B898B8989FD
:1028A0009A890197F1F79A8B898B8B899C8901977B
:1028B0009C8B8B8B8B899C89009769F714C06D89E1
:1028C0007E898F89988D0E944100DC01CB019C8B11
:1028D0008B8B8B899C89988B8F878F8598890197A3
:1028E000F1F7988B8F871FA289A19AA1009711F009
:1028F00081E08FA389A19AA101979AA389A38FA1AF
:10290000882309F05ACF8CA16BA10E94EC0780E2CA
:102910000E94BD0518A68CA1882311F481E088A728
:1029200088A58CA31D8E1E8E1F8E18A28BA18E30A3
:1029300009F083C09DA18CA1981709F07EC00E9468
:10294000F30D80E065E00E94EC0780E690E00E94D5
:10295000C30780E090E0AAE7B4E48B879C87AD874B
:10296000BE876B857C858D859E8520E030E04AEFB3
:1029700054E40E941702DC01CB018F839887A9875A
:10298000BA876F81788589859A8520E030E040E8B4
:102990005FE30E94710388232CF481E090E09E8322
:1029A0008D833FC06F81788589859A8520E03FEFD0
:1029B0004FE757E40E94110318164CF56B857C8590
:1029C0008D859E8520E030E040E251E40E941702B0
:1029D000DC01CB01BC01CD010E944100DC01CB0137
:1029E0009E838D830FC088EC90E09C838B838B81CA
:1029F0009C810197F1F79C838B838D819E81019748
:102A00009E838D838D819E81009769F714C06F81AD
:102A1000788589859A850E944100DC01CB019E83DF
:102A20008D838D819E819A83898389819A81019783
:102A3000F1F79A8389830E94F30D8BA18F5F8BA39B
:102A40008BA18F3008F4B4CEA8960FB6F894DEBFF1
:102A50000FBECDBFCF91DF910895DF93CF93CDB758
:102A6000DEB7A4970FB6F894DEBF0FBECDBF19A294
:102A700018A28EE08F8F45C18EE190E09E8F8D8FE2
:102A800096C00E943E0D8AA38AA1883011F419A233
:102A900005C08AA1853011F481E089A30E94F30D5D
:102AA0008AEB90E061E049A120E00E940C088AEBEB
:102AB00090E062E049A12FE00E940C082F8D82EB8C
:102AC00090E063E048A10E940C0880E090E0A0E262
:102AD000B1E4898F9A8FAB8FBC8F698D7A8D8B8D86
:102AE0009C8D20E030E04AEF54E40E941702DC01A4
:102AF000CB018D8B9E8BAF8BB88F6D897E898F8933
:102B0000988D20E030E040E85FE30E947103882365
:102B10002CF481E090E09C8B8B8B3FC06D897E898B
:102B20008F89988D20E03FEF4FE757E40E94110313
:102B300018164CF5698D7A8D8B8D9C8D20E030E0D8
:102B400040E251E40E941702DC01CB01BC01CD013F
:102B50000E944100DC01CB019C8B8B8B0FC088EC69
:102B600090E09A8B898B89899A890197F1F79A8BE2
:102B7000898B8B899C8901979C8B8B8B8B899C89FA
:102B8000009769F714C06D897E898F89988D0E949E
:102B90004100DC01CB019C8B8B8B8B899C89988BB2
:102BA0008F878F8598890197F1F7988B8F871BA264
:102BB0008D8D9E8D009711F081E08BA38D8D9E8D64
:102BC00001979E8F8D8F8BA1882309F05ACF9F8DFF
:102BD00088A1692F0E94EC0780E20E94BD051CA21B
:102BE00088A1882311F481E08CA38CA188A38F8D08
:102BF000813009F083C099A188A1981709F07EC09F
:102C00000E94F30D80E065E00E94EC0783EA90E00B
:102C10000E94C30780E090E0AAE7B4E48B879C871A
:102C2000AD87BE876B857C858D859E8520E030E0F5
:102C30004AEF54E40E941702DC01CB018F8398878E
:102C4000A987BA876F81788589859A8520E030E0E9
:102C500040E85FE30E94710388232CF481E090E058
:102C60009E838D833FC06F81788589859A8520E01A
:102C70003FEF4FE757E40E94110318164CF56B85A0
:102C80007C858D859E8520E030E040E251E40E9405
:102C90001702DC01CB01BC01CD010E944100DC0127
:102CA000CB019E838D830FC088EC90E09C838B8347
:102CB0008B819C810197F1F79C838B838D819E8111
:102CC00001979E838D838D819E81009769F714C043
:102CD0006F81788589859A850E944100DC01CB014E
:102CE0009E838D838D819E819A83898389819A8138
:102CF0000197F1F79A8389830E94F30D8F8D81509C
:102D00008F8F8F8D18160CF4B7CEA4960FB6F8944B
:102D1000DEBF0FBECDBFCF91DF910895DF93CF937C
:102D20000F92CDB7DEB780E06FEF0E94920B81E08B
:102D30006FEF0E94920B83E060E041E00E947C090B
:102D400083E061E041E00E947C0983E062E041E0D1
:102D50000E947C0983E063E041E00E947C0983E0FB
:102D600064E040E00E947C0983E065E040E00E946E
:102D70007C0983E066E040E00E947C0983E067E034
:102D800040E00E947C0983E064E041E00E94870A01
:102D900083E065E041E00E94870A83E066E041E06D
:102DA0000E94870A83E067E041E00E94870A0E9450
:102DB000DF050E9447120E943E0D8983898184307D
:102DC000B9F40E945E120E943E0D89838981813090
:102DD00031F40E94F30D80E00E94280FF2CF898128
:102DE000823079F70E94F30D81E00E94280FE9CF2D
:102DF00089818530F1F60E94C9130E942D15FBCF01
:102E0000A1E21A2EAA1BBB1BFD010DC0AA1FBB1FEE
:102E1000EE1FFF1FA217B307E407F50720F0A21B60
:102E2000B30BE40BF50B661F771F881F991F1A94CD
:102E300069F760957095809590959B01AC01BD01F7
:102E4000CF0108952F923F924F925F926F927F929F
:102E50008F929F92AF92BF92CF92DF92EF92FF92AA
:102E60000F931F93CF93DF93CDB7DEB7CA1BDB0B56
:102E70000FB6F894DEBF0FBECDBF09942A883988FB
:102E800048885F846E847D848C849B84AA84B98402
:102E9000C884DF80EE80FD800C811B81AA81B9810E
:102EA000CE0FD11D0FB6F894DEBF0FBECDBFED0122
:062EB0000895F894FFCF25
:102EB600206C6F736520006D6F64653120656E74DC
:102EC6006572203420006D6F64653220656E74650E
:102ED60072203520004C494E453120656E7465726E
:102EE600203120004C494E453220656E74657220B3
:102EF600322000204C4F5345200000000000000007
:102F0600000000040E1F1F0E0400001F1F1F1F04D9
:102F160004040708092F0405062A0102032D63008D
:022F26003D2B41
:00000001FF
