:100000000C942A000C9447000C9447000C94470071
:100010000C9447000C9447000C9447000C94470044
:100020000C9447000C9447000C9447000C94470034
:100030000C9447000C9447000C9447000C94470024
:100040000C9447000C9447000C9447000C94470014
:100050000C94470011241FBECFE5D8E0DEBFCDBF12
:1000600010E0A0E6B0E0ECE5F5E202C005900D92EC
:10007000A63AB107D9F710E0A6EAB0E001C01D9298
:10008000A83AB107E1F70E94B20F0C94AC120C949D
:100090000000EF92FF920F931F937B018C0120E0F1
:1000A00030E040E05FE40E94490388238CF0C801FF
:1000B000B70120E030E040E05FE40E94C1010E940F
:1000C000A9039B01AC01205030404040504806C07D
:1000D000C801B7010E94A9039B01AC01B901CA0183
:1000E0001F910F91FF90EF900895A0E0B0E0EBE733
:1000F000F0E00C947512DC012B01FA019C91923016
:1001000008F439C1EB018881823008F433C194309E
:1001100069F4843009F02FC111969C91119789815F
:10012000981709F428C1ADE8B0E025C1843009F47E
:1001300021C18230A9F4923009F01DC19A01AD01AC
:1001400088E0EA010990AE01E90109929E0181501F
:10015000C1F7E201898111969C918923818308C1AD
:10016000923009F407C112962D903C901397EB0141
:100170008A819B811496AD90BD90CD90DC901797AD
:10018000EC80FD800E811F819101281B390BB90184
:1001900037FF04C066277727621B730B6032710537
:1001A0000CF061C0121613066CF537014801062EDB
:1001B00004C096948794779467940A94D2F721E0C8
:1001C00030E040E050E004C0220F331F441F551FB1
:1001D0006A95D2F721503040404050402E213F21B7
:1001E00040235123211531054105510521F021E01E
:1001F00030E040E050E079018A01E628F72808293C
:1002000019293CC0232BD1F1260E371E350146019A
:10021000062E04C096948794779467940A94D2F734
:1002200021E030E040E050E004C0220F331F441FC3
:10023000551F6A95D2F721503040404050402A2146
:100240003B214C215D21211531054105510521F04E
:1002500021E030E040E050E059016A01A628B728CB
:10026000C828D9280BC0821593052CF01C01AA249C
:10027000BB24650103C0EE24FF24870111969C91E5
:10028000D20111968C91981709F445C0992339F041
:10029000A80197012A193B094C095D0906C0A6016E
:1002A00095012E193F09400B510B57FD08C01182D3
:1002B0003382228224833583468357831DC081E0A5
:1002C00081833382228288279927DC01821B930B4A
:1002D000A40BB50B84839583A683B7830DC0220F2F
:1002E000331F441F551F24833583468357838281E0
:1002F000938101979383828324813581468157813D
:10030000DA01C9010197A109B1098F5F9F4FAF4F72
:10031000BF4328F30BC0918333822282EA0CFB1C7B
:100320000C1D1D1DE482F5820683178383E0808304
:10033000248135814681578157FF1AC0C901AA27F8
:1003400097FDA095BA2F81709070A070B0705695EF
:10035000479537952795822B932BA42BB52B848318
:100360009583A683B7838281938101969383828349
:10037000DF0101C0D201CD01CDB7DEB7E2E10C94BF
:100380009112A0E2B0E0E7ECF1E00C9481126983F5
:100390007A838B839C832D833E834F835887E9E048
:1003A000EE2EF12CEC0EFD1ECE010196B7010E943F
:1003B000D2048E010F5E1F4FCE010596B8010E9438
:1003C000D2048A8991E089278A8BC701B801AE01DE
:1003D000475E5F4F0E9475000E94FD03A096E6E015
:1003E0000C949D12A0E2B0E0E8EFF1E00C948112D1
:1003F00069837A838B839C832D833E834F835887C5
:10040000F9E0EF2EF12CEC0EFD1ECE010196B701A6
:100410000E94D2048E010F5E1F4FCE010596B801D7
:100420000E94D204C701B801AE01475E5F4F0E942F
:1004300075000E94FD03A096E6E00C949D12A0E2D8
:10044000B0E0E5E2F2E00C94751269837A838B8365
:100450009C832D833E834F835887CE010196BE0136
:10046000675F7F4F0E94D204CE010596BE016F5E8A
:100470007F4F0E94D2049985923088F0898982301A
:10048000C8F0943019F4823051F404C0843029F457
:10049000923081F48DE890E0C6C0923049F420E0BB
:1004A0009A858A89981321E02A87CE010996BBC0D4
:1004B000823049F420E09A858A89981321E02A8BBA
:1004C000CE014196B0C02D843E844F8458886D88FB
:1004D0007E888F88988CEE24FF248701AA24BB2471
:1004E000650140E050E060E070E0E0E0F0E0C10174
:1004F00081709070892BE9F0E60CF71C081D191D1E
:100500009A01AB012A0D3B1D4C1D5D1D80E090E062
:10051000A0E0B0E0E614F7040805190520F481E036
:1005200090E0A0E0B0E0BA01A901480F591F6A1F8E
:100530007B1FAA0CBB1CCC1CDD1C97FE08C081E0F5
:1005400090E0A0E0B0E0A82AB92ACA2ADB2A3196B6
:10055000E032F10549F0660C771C881C991C569412
:10056000479437942794C3CFFA85EA892B893C892D
:100570008B859C85280F391F2E5F3F4F17C0CA01FE
:1005800081709070892B61F016950795F794E79428
:1005900080E090E0A0E0B0E8E82AF92A0A2B1B2BC3
:1005A00076956795579547952F5F3F4F77FDE7CF36
:1005B0000CC0440F551F661F771F17FD4160EE0CDE
:1005C000FF1C001F111F21503040403090E05907A0
:1005D00090E0690790E4790760F32B8F3C8FDB0193
:1005E000CA018F779070A070B07080349105A1051A
:1005F000B10561F447FD0AC0E114F10401051105DC
:1006000029F0405C5F4F6F4F7F4F40781A8EFE1786
:1006100011F081E08A8F4D8F5E8F6F8F78A383E01A
:10062000898FCE0149960E94FD03A096E2E10C94C9
:100630009112A8E1B0E0EFE1F3E00C94811269833C
:100640007A838B839C832D833E834F83588789E0F5
:10065000E82EF12CEC0EFD1ECE010196B7010E9492
:10066000D2048E010F5E1F4FCE010596B8010E9485
:10067000D2048985823040F08989823028F0C70110
:10068000B8010E944A0501C08FEF6896E6E00C941D
:100690009D12A8E1B0E0EFE4F3E00C9481126983CD
:1006A0007A838B839C832D833E834F83588789E095
:1006B000E82EF12CEC0EFD1ECE010196B7010E9432
:1006C000D2048E010F5E1F4FCE010596B8010E9425
:1006D000D2048985823040F08989823028F0C701B0
:1006E000B8010E944A0501C08FEF6896E6E00C94BD
:1006F0009D12A8E1B0E0EFE7F3E00C94811269836A
:100700007A838B839C832D833E834F83588789E034
:10071000E82EF12CEC0EFD1ECE010196B7010E94D1
:10072000D2048E010F5E1F4FCE010596B8010E94C4
:10073000D2048985823040F08989823028F0C7014F
:10074000B8010E944A0501C081E06896E6E00C9479
:100750009D12ACE0B0E0EFEAF3E00C9485126983FF
:100760007A838B839C83CE010196BE016B5F7F4FA2
:100770000E94D2048D81823061F1823050F1843048
:1007800021F48E81882351F12EC02F81388537FDC9
:1007900020C06E812F3131051CF06623F9F023C093
:1007A0008EE190E0821B930B29853A854B855C8511
:1007B00004C056954795379527958A95D2F76623B5
:1007C000B1F050954095309521953F4F4F4F5F4F79
:1007D0000EC020E030E040E050E009C02FEF3FEFD6
:1007E0004FEF5FE704C020E030E040E050E8B9019F
:1007F000CA012C96E2E00C94A112DF92EF92FF92D4
:100800000F931F93FC01E480F58006811781D1804E
:100810008081823048F480E090E0A0E1B0E0E82AF6
:10082000F92A0A2B1B2BA5C0843009F49FC0823003
:1008300021F4EE24FF24870105C0E114F104010531
:10084000110519F4E0E0F0E096C0628173819FEF3A
:10085000623879070CF05BC022E83FEF261B370BAC
:100860002A3131052CF020E030E040E050E02AC091
:10087000B801A701022E04C0769567955795479554
:100880000A94D2F781E090E0A0E0B0E004C0880FC5
:10089000991FAA1FBB1F2A95D2F70197A109B10979
:1008A0008E219F21A023B1230097A105B10521F03E
:1008B00081E090E0A0E0B0E09A01AB01282B392B59
:1008C0004A2B5B2BDA01C9018F779070A070B07052
:1008D00080349105A105B10539F427FF09C0205CDA
:1008E0003F4F4F4F5F4F04C0215C3F4F4F4F5F4F13
:1008F000E0E0F0E02030A0E03A07A0E04A07A0E402
:100900005A0710F0E1E0F0E079018A0127C0603871
:10091000710564F5FB01E158FF4FD801C7018F77DE
:100920009070A070B07080349105A105B10539F4C4
:10093000E7FE0DC080E490E0A0E0B0E004C08FE3EB
:1009400090E0A0E0B0E0E80EF91E0A1F1B1F17FFA1
:1009500005C016950795F794E794319687E01695AC
:100960000795F794E7948A95D1F705C0EE24FF2404
:100970008701EFEFF0E06E2F679566276795902F60
:100980009F77D794DD24D7948E2F8695492F462BB9
:10099000582F5D29B701CA011F910F91FF90EF9069
:1009A000DF900895FC01DB01408151812281622F9B
:1009B0006F7770E0221F2227221F9381892F880FD3
:1009C000822B282F30E0991F9927991F11969C930D
:1009D000119721153105A9F54115510561057105DD
:1009E00011F482E037C082E89FEF13969C938E93B8
:1009F00012979A01AB0167E0220F331F441F551F66
:100A00006A95D1F783E08C930DC0220F331F441FEA
:100A1000551F12968D919C911397019713969C9355
:100A20008E931297203080E0380780E0480780E4FA
:100A3000580758F314962D933D934D935C93179755
:100A400008952F3F310579F4411551056105710570
:100A500019F484E08C93089564FF03C081E08C93C3
:100A600012C01C9210C02F57304013963C932E9307
:100A7000129783E08C9387E0440F551F661F771F02
:100A80008A95D1F7706414964D935D936D937C9322
:100A9000179708951F93DC01FB019C91923008F495
:100AA00047C08081823008F443C0943051F41196DD
:100AB0001C91843099F58181682F70E0611B710968
:100AC0003FC0843021F0923031F48230B9F181811D
:100AD000882389F12DC011961C9111978230F1F075
:100AE00081811817D9F412962D913C911397828128
:100AF00093818217930794F028173907BCF0149656
:100B00008D919D910D90BC91A02D248135814681C0
:100B10005781281739074A075B0718F4112341F05A
:100B20000AC082179307A407B50740F4112319F0F0
:100B300061E070E005C06FEF7FEF02C060E070E041
:100B4000CB011F910895DF93CF93CDB7DEB7A3E517
:100B5000B0E0E3E5F0E0808180648C93A3E5B0E051
:100B6000E3E5F0E0808188608C93A3E5B0E0E3E505
:100B7000F0E080818F7E8C93A3E5B0E0E3E5F0E0C8
:100B8000808180628C93A3E5B0E0E3E5F0E08081B2
:100B9000887F8C93A3E5B0E0E3E5F0E0808182609C
:100BA0008C93CF91DF910895DF93CF93CDB7DEB7CC
:100BB000AEE4B0E0EEE4F0E080818E7F8C93AEE4B2
:100BC000B0E0EEE4F0E0808182608C93AEE4B0E0CF
:100BD000EEE4F0E080818B7F8C93CF91DF910895DC
:100BE000DF93CF93CDB7DEB7ECE4F0E08081918165
:100BF000CF91DF910895DF93CF93CDB7DEB7E2E5D4
:100C0000F0E08081882F90E0CF91DF910895DF930D
:100C1000CF930F92CDB7DEB78983E2E5F0E089810B
:100C200080830F90CF91DF910895DF93CF9300D011
:100C3000CDB7DEB79A838983ECE4F0E089819A81AD
:100C4000918380830F900F90CF91DF910895DF9370
:100C5000CF9300D0CDB7DEB79A838983E6E4F0E086
:100C6000898180830F900F90CF91DF910895DF935A
:100C7000CF9300D0CDB7DEB79A838983EAE4F0E062
:100C8000898180830F900F90CF91DF910895DF933A
:100C9000CF930F92CDB7DEB78983ECE5F0E0898181
:100CA00080830F90CF91DF910895DF93CF9300D091
:100CB0000F92CDB7DEB79B838A8381E089838A81D7
:100CC0009B81009739F08A819B819093A700809344
:100CD000A60002C082E0898389810F900F900F9057
:100CE000CF91DF910895DF93CF930F92CDB7DEB709
:100CF0008983ECE5F0E0898180830F90CF91DF91CB
:100D00000895DF93CF93CDB7DEB7A2970FB6F894CF
:100D1000DEBF0FBECDBF8FEF8B831D8281E08E8340
:100D200082E08F8383E0888784E0898785E08A87F3
:100D300086E08B8787E08C87CE010D969F8F8E8F04
:100D4000E5E9F0E0F9A3E8A3F0E1FAA3E8A1F9A14D
:100D5000008088A199A1019699A388A3EE8DFF8DAB
:100D600000828E8D9F8D01969F8F8E8F9AA19150BC
:100D70009AA3EAA1EE2351F71A8268C08A81282F2C
:100D800030E0CE010596FC01E20FF31F908182E076
:100D9000692F40E00E944409198243C08981282FAD
:100DA00030E0CE010996FC01E20FF31F90819E0115
:100DB0002C5F3F4F82E0692FA9010E94DD0A8C81E0
:100DC000882361F58981282F30E08A81482F50E0FF
:100DD000220F331F220F331FCE010196820F931F64
:100DE000840F951FFC013C9680818B8311C0898103
:100DF000282F30E0CE010996FC01E20FF31F90810D
:100E00009E012C5F3F4F82E0692FA9010E94DD0AFD
:100E10008C81882361F3FB81FD8F1EC089818F5FE8
:100E200089838981843008F4B9CF8A81282F30E002
:100E3000CE010596FC01E20FF31F908182E0692F3D
:100E400041E00E9444098A818F5F8A838A818430CD
:100E500008F494CF8B818D8F8D8DA2960FB6F89468
:100E6000DEBF0FBECDBFCF91DF910895DF93CF934B
:100E7000CDB7DEB760970FB6F894DEBF0FBECDBF1B
:100E80000E948106882F90E0A0E0B0E08D839E83D1
:100E9000AF83B8878D819E81AF81B8858F3F9105E3
:100EA000A105B10569F38D819E81AF81B8858D87DC
:100EB0009E87AF87B88B8D859E85AF85B8898F3229
:100EC0009105A105B10509F45BC08D859E85AF85AF
:100ED000B88980339105A105B105E0F48D859E8523
:100EE000AF85B8898B329105A105B10531F18D85AA
:100EF0009E85AF85B8898D329105A105B10509F1AF
:100F00008D859E85AF85B8898A329105A105B10589
:100F1000E1F03AC08D859E85AF85B8898D33910506
:100F2000A105B105B1F08D859E85AF85B889833661
:100F30009105A105B10589F027C08BE20E94080E3A
:100F40002BC08DE20E94080E27C08AE20E94080E84
:100F500023C08DE30E94080E1FC00E94570C0E9400
:100F60003607DC01CB0189839A83AB83BC838981FB
:100F70009A81AB81BC8189879A87AB87BC8714C073
:100F80008FE20E94080E08C08D819E81AF81B885D6
:100F9000BC01CD010E94340F8D819E81AF81B88547
:100FA00089879A87AB87BC8789859A85AB85BC85FD
:100FB000BC01CD0160960FB6F894DEBF0FBECDBF69
:100FC000CF91DF910895DF93CF93CDB7DEB7299707
:100FD0000FB6F894DEBF0FBECDBF1A821B821C82F3
:100FE0001D8219820E943607DC01CB018E839F830C
:100FF000A887B98789818F5F89838E819F81A88522
:10100000B9858F3F9105A105B10519F18E819F81A9
:10101000A885B9858A309105A105B105D0F48A81EA
:101020009B81AC81BD812AE030E040E050E0BC0112
:10103000CD010E9434129B01AC018E819F81A88555
:10104000B985820F931FA41FB51F8A839B83AC832E
:10105000BD838981843030F28A819B81AC81BD81DE
:10106000BC01CD0129960FB6F894DEBF0FBECDBFEF
:10107000CF91DF910895DF93CF93CDB7DEB7289757
:101080000FB6F894DEBF0FBECDBF8A836B834C834F
:1010900081E089838C81882309F076C08A81282F9A
:1010A00030E038872F838F8198858130910559F101
:1010B0002F813885223031052CF48F819885009757
:1010C00069F060C02F8138852230310589F18F8128
:1010D00098858330910509F440C054C0AAE3B0E07C
:1010E000EAE3F0E08081482F8B81282F30E081E017
:1010F00090E0022E02C0880F991F0A94E2F78095B3
:1011000084238C93B7C0A7E3B0E0E7E3F0E08081ED
:10111000482F8B81282F30E081E090E0022E02C022
:10112000880F991F0A94E2F7809584238C93A2C0BC
:10113000A4E3B0E0E4E3F0E08081482F8B81282F26
:1011400030E081E090E0022E02C0880F991F0A94DF
:10115000E2F7809584238C938DC0A1E3B0E0E1E3B6
:10116000F0E08081482F8B81282F30E081E090E0F3
:10117000022E02C0880F991F0A94E2F780958423FB
:101180008C9378C0198276C08C81813009F071C04F
:101190008A81282F30E03E832D838D819E8181308E
:1011A000910549F12D813E81223031052CF48D814C
:1011B0009E81009761F05BC02D813E812230310518
:1011C00071F18D819E8183309105E9F150C0AAE3D0
:1011D000B0E0EAE3F0E08081482F8B81282F30E0F7
:1011E00081E090E0022E02C0880F991F0A94E2F776
:1011F000842B8C933FC0A7E3B0E0E7E3F0E080816D
:10120000482F8B81282F30E081E090E0022E02C031
:10121000880F991F0A94E2F7842B8C932BC0A4E3C8
:10122000B0E0E4E3F0E08081482F8B81282F30E0AC
:1012300081E090E0022E02C0880F991F0A94E2F725
:10124000842B8C9317C0A1E3B0E0E1E3F0E0808150
:10125000482F8B81282F30E081E090E0022E02C0E1
:10126000880F991F0A94E2F7842B8C9303C019828C
:1012700001C01982898128960FB6F894DEBF0FBE8F
:10128000CDBFCF91DF910895DF93CF93CDB7DEB778
:1012900028970FB6F894DEBF0FBECDBF8A836B834D
:1012A0004C8381E089838C81882309F076C08A8110
:1012B000282F30E038872F838F81988581309105E2
:1012C00059F12F813885223031052CF48F81988592
:1012D000009769F060C02F8138852230310589F18F
:1012E0008F8198858330910509F440C054C0ABE3E9
:1012F000B0E0EBE3F0E08081482F8B81282F30E0D5
:1013000081E090E0022E02C0880F991F0A94E2F754
:10131000809584238C93B7C0A8E3B0E0E8E3F0E0C5
:101320008081482F8B81282F30E081E090E0022ED1
:1013300002C0880F991F0A94E2F7809584238C934A
:10134000A2C0A5E3B0E0E5E3F0E08081482F8B8107
:10135000282F30E081E090E0022E02C0880F991F14
:101360000A94E2F7809584238C938DC0A2E3B0E0C9
:10137000E2E3F0E08081482F8B81282F30E081E08C
:1013800090E0022E02C0880F991F0A94E2F7809520
:1013900084238C9378C0198276C08C81813009F0C7
:1013A00071C08A81282F30E03E832D838D819E81FC
:1013B0008130910549F12D813E81223031052CF497
:1013C0008D819E81009761F05BC02D813E8122302E
:1013D000310571F18D819E8183309105E9F150C015
:1013E000ABE3B0E0EBE3F0E08081482F8B81282F66
:1013F00030E081E090E0022E02C0880F991F0A942D
:10140000E2F7842B8C933FC0A8E3B0E0E8E3F0E080
:101410008081482F8B81282F30E081E090E0022EE0
:1014200002C0880F991F0A94E2F7842B8C932BC07B
:10143000A5E3B0E0E5E3F0E08081482F8B81282F21
:1014400030E081E090E0022E02C0880F991F0A94DC
:10145000E2F7842B8C9317C0A2E3B0E0E2E3F0E064
:101460008081482F8B81282F30E081E090E0022E90
:1014700002C0880F991F0A94E2F7842B8C9303C053
:10148000198201C01982898128960FB6F894DEBFAF
:101490000FBECDBFCF91DF910895DF93CF9300D0E2
:1014A00000D00F92CDB7DEB78A836B8381E089834A
:1014B0008A81282F30E03D832C838C819D8181306F
:1014C0009105D1F02C813D81223031052CF48C81A5
:1014D0009D81009761F01FC02C813D812230310534
:1014E00081F08C819D818330910581F014C0EAE305
:1014F000F0E08B81808310C0E7E3F0E08B81808394
:101500000BC0E4E3F0E08B81808306C0E1E3F0E010
:101510008B81808301C0198289810F900F900F9079
:101520000F900F90CF91DF910895DF93CF9300D06C
:1015300000D00F92CDB7DEB78A836B8381E08983B9
:101540008A81282F30E03D832C838C819D818130DE
:101550009105D1F02C813D81223031052CF48C8114
:101560009D81009761F01FC02C813D8122303105A3
:1015700081F08C819D818330910581F014C0EBE373
:10158000F0E08B81808310C0E8E3F0E08B81808302
:101590000BC0E5E3F0E08B81808306C0E2E3F0E07E
:1015A0008B81808301C0198289810F900F900F90E9
:1015B0000F900F90CF91DF910895DF93CF93CDB728
:1015C000DEB727970FB6F894DEBF0FBECDBF8A8374
:1015D0006B835D834C8381E089838C819D8100973F
:1015E00009F477C08B81883008F073C08A81282F76
:1015F00030E03F832E834E815F814130510559F1A8
:101600008E819F818230910534F42E813F81211596
:10161000310569F05CC04E815F814230510579F13E
:101620008E819F818330910509F43DC050C0E9E36C
:10163000F0E08081282F30E08B81882F90E0A90195
:1016400002C0559547958A95E2F7CA018170EC81F1
:10165000FD81808340C0E6E3F0E08081282F30E008
:101660008B81882F90E0A90102C0559547958A95F6
:10167000E2F7CA018170EC81FD8180832CC0E3E335
:10168000F0E08081282F30E08B81882F90E0A90145
:1016900002C0559547958A95E2F7CA018170EC81A1
:1016A000FD81808318C0E0E3F0E08081282F30E0E6
:1016B0008B81882F90E0A90102C0559547958A95A6
:1016C000E2F7CA018170EC81FD81808304C0198238
:1016D00002C082E08983898127960FB6F894DEBF25
:1016E0000FBECDBFCF91DF910895DF93CF9300D090
:1016F00000D000D0CDB7DEB78A837C836B8381E0D6
:1017000089838B819C810097E9F18A81282F30E0C1
:101710003E832D838D819E8181309105E1F02D8165
:101720003E81223031052CF48D819E81009761F03D
:1017300027C02D813E8122303105A1F08D819E810F
:1017400083309105B1F01CC0E9E3F0E08081EB81CA
:10175000FC81808318C0E6E3F0E08081EB81FC81AE
:10176000808311C0E3E3F0E08081EB81FC81808322
:101770000AC0E0E3F0E08081EB81FC81808303C05C
:10178000198201C01982898126960FB6F894DEBFAE
:101790000FBECDBFCF91DF910895DF93CF9300D0DF
:1017A00000D00F92CDB7DEB78A836B8381E0898347
:1017B0008B81883008F071C08A81282F30E03D830A
:1017C0002C838C819D818130910549F12C813D8153
:1017D000223031052CF48C819D81009761F05BC033
:1017E0002C813D812230310571F18C819D818330C6
:1017F0009105E9F150C0ABE3B0E0EBE3F0E08081AC
:10180000482F8B81282F30E081E090E0022E02C02B
:10181000880F991F0A94E2F784278C933FC0A8E3AE
:10182000B0E0E8E3F0E08081482F8B81282F30E0A2
:1018300081E090E0022E02C0880F991F0A94E2F71F
:1018400084278C932BC0A5E3B0E0E5E3F0E0808132
:10185000482F8B81282F30E081E090E0022E02C0DB
:10186000880F991F0A94E2F784278C9317C0A2E38C
:10187000B0E0E2E3F0E08081482F8B81282F30E058
:1018800081E090E0022E02C0880F991F0A94E2F7CF
:1018900084278C9303C0198201C0198289810F901B
:1018A0000F900F900F900F90CF91DF910895DF93DD
:1018B000CF93CDB7DEB72E970FB6F894DEBF0FBE2D
:1018C000CDBF81E00E946A0D80E090E0A0E0B0E42E
:1018D0008B879C87AD87BE876B857C858D859E8534
:1018E00020E030E04AEF54E40E941F02DC01CB010B
:1018F0008F839887A987BA876F81788589859A852C
:1019000020E030E040E85FE30E94790388232CF474
:1019100081E090E09E838D833FC06F8178858985CB
:101920009A8520E03FEF4FE757E40E94190318160D
:101930004CF56B857C858D859E8520E030E040E20E
:1019400051E40E941F02DC01CB01BC01CD010E94C9
:101950004900DC01CB019E838D830FC088EC90E0B1
:101960009C838B838B819C810197F1F79C838B8374
:101970008D819E8101979E838D838D819E810097AD
:1019800069F714C06F81788589859A850E9449001E
:10199000DC01CB019E838D838D819E819A83898317
:1019A00089819A810197F1F79A8389832E960FB6E0
:1019B000F894DEBF0FBECDBFCF91DF910895DF93C6
:1019C000CF9300D00F92CDB7DEB79B838A83198265
:1019D0000EC08981282F30E08A819B81FC01E20FB3
:1019E000F31F80810E94080E89818F5F898389811E
:1019F000282F30E08A819B81FC01E20FF31F808158
:101A0000882339F70F900F900F90CF91DF910895B1
:101A1000DF93CF93CDB7DEB727970FB6F894DEBF2D
:101A20000FBECDBF9C838B836D834E832F838D81AF
:101A3000882F90E0880F991F880F991F880F991F92
:101A40008A838A8180648A838A810E946A0D1982CE
:101A50000EC08981282F30E08B819C81FC01E20F30
:101A6000F31F80810E94080E89818F5F898389819D
:101A7000883078F38E816F810E944A0D8D810E949B
:101A8000080E27960FB6F894DEBF0FBECDBFCF91DC
:101A9000DF910895DF93CF9300D00F92CDB7DEB7DB
:101AA0008A836B838A81882319F48B81898306C09A
:101AB0008A81813019F48B81805C89838981806877
:101AC000898389810E946A0D0F900F900F90CF91AA
:101AD000DF910895DF93CF93CDB7DEB72F970FB681
:101AE000F894DEBF0FBECDBF8F8781E060E040E09D
:101AF0000E94440981E061E040E00E94440980E0E6
:101B00006F850E94950A81E062E041E00E944409ED
:101B100080E090E0A0E0B0E48B879C87AD87BE8733
:101B20006B857C858D859E8520E030E04AEF54E40E
:101B30000E941F02DC01CB018F839887A987BA8797
:101B40006F81788589859A8520E030E040E85FE301
:101B50000E94790388232CF481E090E09E838D839A
:101B60003FC06F81788589859A8520E03FEF4FE7F8
:101B700057E40E94190318164CF56B857C858D85FA
:101B80009E8520E030E040E251E40E941F02DC012B
:101B9000CB01BC01CD010E944900DC01CB019E8339
:101BA0008D830FC088EC90E09C838B838B819C811C
:101BB0000197F1F79C838B838D819E8101979E8392
:101BC0008D838D819E81009769F714C06F81788520
:101BD00089859A850E944900DC01CB019E838D8313
:101BE0008D819E819A83898389819A810197F1F7FA
:101BF0009A83898381E062E040E00E9444092F9645
:101C00000FB6F894DEBF0FBECDBFCF91DF91089520
:101C1000DF93CF93CDB7DEB72F970FB6F894DEBF23
:101C20000FBECDBF8F8781E060E041E00E94440994
:101C300081E061E040E00E94440980E06F850E94FD
:101C4000950A81E062E041E00E94440980E090E072
:101C5000A0E0B0E48B879C87AD87BE876B857C85D1
:101C60008D859E8520E030E04AEF54E40E941F02FB
:101C7000DC01CB018F839887A987BA876F8178852C
:101C800089859A8520E030E040E85FE30E9479038F
:101C900088232CF481E090E09E838D833FC06F8188
:101CA000788589859A8520E03FEF4FE757E40E94C9
:101CB000190318164CF56B857C858D859E8520E073
:101CC00030E040E251E40E941F02DC01CB01BC0184
:101CD000CD010E944900DC01CB019E838D830FC0A2
:101CE00088EC90E09C838B838B819C810197F1F73A
:101CF0009C838B838D819E8101979E838D838D81B3
:101D00009E81009769F714C06F81788589859A85CF
:101D10000E944900DC01CB019E838D838D819E81D1
:101D20009A83898389819A810197F1F79A838983BC
:101D300081E062E040E00E9444092F960FB6F894DB
:101D4000DEBF0FBECDBFCF91DF910895DF93CF935C
:101D5000CDB7DEB72E970FB6F894DEBF0FBECDBF5E
:101D600080E090E0A0E2B2E48B879C87AD87BE87DD
:101D70006B857C858D859E8520E030E04AEF54E4BC
:101D80000E941F02DC01CB018F839887A987BA8745
:101D90006F81788589859A8520E030E040E85FE3AF
:101DA0000E94790388232CF481E090E09E838D8348
:101DB0003FC06F81788589859A8520E03FEF4FE7A6
:101DC00057E40E94190318164CF56B857C858D85A8
:101DD0009E8520E030E040E251E40E941F02DC01D9
:101DE000CB01BC01CD010E944900DC01CB019E83E7
:101DF0008D830FC088EC90E09C838B838B819C81CA
:101E00000197F1F79C838B838D819E8101979E833F
:101E10008D838D819E81009769F714C06F817885CD
:101E200089859A850E944900DC01CB019E838D83C0
:101E30008D819E819A83898389819A810197F1F7A7
:101E40009A83898388E30E946A0D8CE00E946A0D60
:101E500081E00E946A0D2E960FB6F894DEBF0FBE89
:101E6000CDBFCF91DF9108950F931F93DF93CF9351
:101E7000CDB7DEB76B970FB6F894DEBF0FBECDBF00
:101E8000688F798F8A8F9B8F1B822DC08B81082F43
:101E900010E0888D998DAA8DBB8D2AE030E040E05E
:101EA00050E0BC01CD010E945312DC01CB01282F70
:101EB000CE010496FC01E00FF11F2083888D998DDF
:101EC000AA8DBB8D2AE030E040E050E0BC01CD019E
:101ED0000E945312DA01C901888F998FAA8FBB8F94
:101EE0008B818F5F8B83888D998DAA8DBB8D009799
:101EF000A105B10559F68B8181508B838B81882F89
:101F000090E09A83898310C029813A81CE0104969A
:101F1000FC01E20FF31F8081805D0E94080E898121
:101F20009A8101979A83898389819A81992364F799
:101F30006B960FB6F894DEBF0FBECDBFCF91DF9189
:101F40001F910F910895DF93CF93CDB7DEB781E056
:101F500066E00E944A0D80E690E00E94DF0CCF917F
:101F6000DF910895DF93CF93CDB7DEB7ED970FB62E
:101F7000F894DEBF0FBECDBF81E063E041E00E9478
:101F80003B0882E060E041E00E943B0882E061E0C3
:101F900041E00E943B0882E062E041E00E943B0891
:101FA00082E063E041E00E943B0882E064E040E0C0
:101FB0000E943B0882E065E040E00E943B0882E02E
:101FC00066E040E00E943B0882E067E040E00E945B
:101FD0003B0882E06FEF0E94950A80E06FEF0E945D
:101FE0004D0A81E06FEF0E944D0A83E067E041E017
:101FF0000E943B080E94A60E0E94A3051DAE80E031
:1020000060E00E944A0D86E690E00E94DF0C80E0CE
:1020100090E0AAEFB3E48DAB9EABAFABB8AF6DA9C8
:102020007EA98FA998AD20E030E04AEF54E40E94E9
:102030001F02DC01CB0189AB9AABABABBCAB69A98E
:102040007AA98BA99CA920E030E040E85FE30E94D8
:10205000790388232CF481E090E098AB8FA73FC0F0
:1020600069A97AA98BA99CA920E03FEF4FE757E423
:102070000E94190318164CF56DA97EA98FA998AD79
:1020800020E030E040E251E40E941F02DC01CB017D
:10209000BC01CD010E944900DC01CB0198AB8FA7A8
:1020A0000FC088EC90E09EA78DA78DA59EA50197F7
:1020B000F1F79EA78DA78FA598A9019798AB8FA739
:1020C0008FA598A9009769F714C069A97AA98BA967
:1020D0009CA90E944900DC01CB0198AB8FA78FA57A
:1020E00098A99CA78BA78BA59CA50197F1F79CA706
:1020F0008BA70E94570C0E94E307DC01CB0189AF3C
:102100009AAFABAFBCAF80E090E0A6E9B3E48FA399
:1021100098A7A9A7BAA76FA178A589A59AA520E035
:1021200030E04AEF54E40E941F02DC01CB018BA394
:102130009CA3ADA3BEA36BA17CA18DA19EA120E019
:1021400030E040E85FE30E94790388232CF481E0CB
:1021500090E09AA389A33FC06BA17CA18DA19EA111
:1021600020E03FEF4FE757E40E94190318164CF5A3
:102170006FA178A589A59AA520E030E040E251E45E
:102180000E941F02DC01CB01BC01CD010E9449006D
:10219000DC01CB019AA389A30FC088EC90E098A33F
:1021A0008F8F8F8D98A10197F1F798A38F8F89A1B9
:1021B0009AA101979AA389A389A19AA1009769F787
:1021C00014C06BA17CA18DA19EA10E944900DC01DD
:1021D000CB019AA389A389A19AA19E8F8D8F8D8D02
:1021E0009E8D0197F1F79E8F8D8F89AD9AADABAD26
:1021F000BCAD843E29E0920720E0A20720E0B207B0
:1022000009F480C08DAD843008F07CC00E94570C6A
:1022100080E060E00E944A0D85E790E00E94DF0CBC
:1022200080E090E0AAE7B4E4898F9A8FAB8FBC8FEF
:10223000698D7A8D8B8D9C8D20E030E04AEF54E4DF
:102240000E941F02DC01CB018D8B9E8BAF8BB88F60
:102250006D897E898F89988D20E030E040E85FE3CA
:102260000E94790388232CF481E090E09C8B8B8B77
:102270003FC06D897E898F89988D20E03FEF4FE7C1
:1022800057E40E94190318164CF5698D7A8D8B8DD1
:102290009C8D20E030E040E251E40E941F02DC010E
:1022A000CB01BC01CD010E944900DC01CB019C8B1C
:1022B0008B8B0FC088EC90E09A8B898B89899A89E7
:1022C0000197F1F79A8B898B8B899C8901979C8B5D
:1022D0008B8B8B899C89009769F714C06D897E89E7
:1022E0008F89988D0E944900DC01CB019C8B8B8BE0
:1022F0008B899C89988B8F878F8598890197F1F7B7
:10230000988B8F870E94570C8DAD8F5F8DAF8DADF1
:10231000853068F489AD9AADABADBCAD843E29E0A3
:10232000920720E0A20720E0B20709F0E4CE89ADD1
:102330009AADABADBCAD843E29E0920720E0A20788
:1023400020E0B20711F40E94A30F89AD9AADABADA6
:10235000BCAD843E29E0920720E0A20720E0B2074E
:1023600009F4C9CE0E94570C80E060E00E944A0D3B
:1023700086E890E00E94DF0C80E090E0AAE7B4E4F9
:102380008B879C87AD87BE876B857C858D859E8579
:1023900020E030E04AEF54E40E941F02DC01CB0150
:1023A0008F839887A987BA876F81788589859A8571
:1023B00020E030E040E85FE30E94790388232CF4BA
:1023C00081E090E09E838D833FC06F817885898511
:1023D0009A8520E03FEF4FE757E40E941903181653
:1023E0004CF56B857C858D859E8520E030E040E254
:1023F00051E40E941F02DC01CB01BC01CD010E940F
:102400004900DC01CB019E838D830FC088EC90E0F6
:102410009C838B838B819C810197F1F79C838B83B9
:102420008D819E8101979E838D838D819E810097F2
:1024300069F714C06F81788589859A850E94490063
:10244000DC01CB019E838D838D819E819A8389835C
:1024500089819A810197F1F79A83898383E067E004
:1024600041E00E94440947CE629FD001739FF00172
:10247000829FE00DF11D649FE00DF11D929FF00D14
:10248000839FF00D749FF00D659FF00D9927729F4B
:10249000B00DE11DF91F639FB00DE11DF91FBD01D6
:1024A000CF0111240895A1E21A2EAA1BBB1BFD0126
:1024B0000DC0AA1FBB1FEE1FFF1FA217B307E40723
:1024C000F50720F0A21BB30BE40BF50B661F771F7B
:1024D000881F991F1A9469F760957095809590955B
:1024E0009B01AC01BD01CF0108952F923F924F9205
:1024F0005F926F927F928F929F92AF92BF92CF9294
:10250000DF92EF92FF920F931F93CF93DF93CDB79C
:10251000DEB7CA1BDB0B0FB6F894DEBF0FBECDBF14
:1025200009942A88398848885F846E847D848C84E5
:102530009B84AA84B984C884DF80EE80FD800C81EE
:102540001B81AA81B981CE0FD11D0FB6F894DEBFD1
:0C2550000FBECDBFED010895F894FFCF41
:10255C0048656C6C6F00456E7465722070617373A6
:10256C00776F726400456E746572207061737320AE
:10257C00616761696E004661696C6564000000000A
:10258C0000000000000708092F0405062A010203B9
:06259C002D63003D2B0041
:00000001FF
