:100000000C942A000C9419030C9442030C946B0377
:100010000C9447000C9447000C9447000C949704F0
:100020000C9447000C946E040C9445040C941C042E
:100030000C9447000C9447000C9447000C94470024
:100040000C9447000C9447000C9447000C94470014
:100050000C94470011241FBECFE5D8E0DEBFCDBF12
:1000600010E0A0E6B0E0E8ECF9E002C005900D92E7
:10007000AC36B107D9F720E0ACE6B0E001C01D9284
:10008000AB37B207E1F70E9465010C94E2040C94CF
:10009000000080916C008130F1F018F08230A9F1FD
:1000A000089540E062E080E00E94F00141E060E0FD
:1000B00080E00E94F00141E062E082E00E94F001F5
:1000C00040E060E082E00E94F00180916C008F5F70
:1000D00080936C00089540E060E080E00E94F001B1
:1000E00041E061E080E00E94F00140E062E082E0F7
:1000F0000E94F00141E061E082E00E94F001809105
:100100006C008F5F80936C00089540E061E080E0B8
:100110000E94F00141E062E080E00E94F00141E0D5
:1001200060E082E00E94F00140E061E082E00E9435
:10013000F00110926C000895C89B1FC01DBC1CBC30
:100140001092730010927400109275001092760055
:1001500040E060E080E00E94F00141E061E080E08A
:100160000E94F00140E062E082E00E94F00141E084
:1001700061E082E00E94F0010895C99B1FC01DBC90
:100180001CBC1092730010927400109275001092B3
:10019000760040E061E080E00E94F00141E062E032
:1001A00080E00E94F00140E061E082E00E94F00106
:1001B00041E060E082E00E94F0010895CA9B1EC009
:1001C0001DBC1CBC1092730010927400109275003C
:1001D0001092760040E062E080E00E94F00141E091
:1001E00060E080E00E94F00141E062E082E00E9475
:1001F000F00140E060E082E00E94F0010895CF93BA
:10020000DF93CDB7DEB767970FB6F894DEBF0FBEAA
:10021000CDBF0E94780219821A821B8291E09C83D2
:100220001D8282E08E838F83188689879A878B87C9
:100230008C87CE0101960E945501CE0103960E9443
:100240005501CE0105960E945501CE0107960E94E8
:100250005501CE0109960E945501CE010B960E94D0
:10026000550141E060E081E00E947C028BE0E0E625
:10027000F0E0DE011D9601900D928A95E1F7CE0126
:100280000D960E94940361E089E490E00E94FA03D5
:100290008CE990E00E940F0367960FB6F894DEBFDA
:1002A0000FBECDBFDF91CF910895FC0180818430D6
:1002B00040F46181683038F441E00E94680184E0D4
:1002C000089581E0089581E008950E94FF00FFCF26
:1002D000843008F07BC0683008F07AC04130C1F546
:1002E000813091F028F08230D9F0833029F172C04A
:1002F0002AB381E090E002C0880F991F6A95E2F767
:10030000822B8ABB84E0089527B381E090E002C08D
:10031000880F991F6A95E2F7822B87BB84E00895C6
:1003200024B381E090E002C0880F991F6A95E2F73C
:10033000822B84BB84E0089521B381E090E002C069
:10034000880F991F6A95E2F7822B81BB84E008959C
:10035000411142C0813099F028F08230E9F08330B9
:1003600041F13CC02AB381E090E002C0880F991FA0
:100370006A95E2F7809582238ABB84E0089527B3CB
:1003800081E090E002C0880F991F6A95E2F780959E
:10039000822387BB84E0089524B381E090E002C00B
:1003A000880F991F6A95E2F78095822384BB84E0C9
:1003B000089521B381E090E002C0880F991F6A95EB
:1003C000E2F78095822381BB84E0089581E008955F
:1003D00081E0089584E0089581E0089584E008951F
:1003E000843008F07BC0683008F07AC04130C1F535
:1003F000813091F028F08230D9F0833029F172C039
:100400002BB381E090E002C0880F991F6A95E2F754
:10041000822B8BBB84E0089528B381E090E002C07A
:10042000880F991F6A95E2F7822B88BB84E00895B4
:1004300025B381E090E002C0880F991F6A95E2F72A
:10044000822B85BB84E0089522B381E090E002C056
:10045000880F991F6A95E2F7822B82BB84E008958A
:10046000411142C0813099F028F08230E9F08330A8
:1004700041F13CC02BB381E090E002C0880F991F8E
:100480006A95E2F7809582238BBB84E0089528B3B8
:1004900081E090E002C0880F991F6A95E2F780958D
:1004A000822388BB84E0089525B381E090E002C0F8
:1004B000880F991F6A95E2F78095822385BB84E0B7
:1004C000089522B381E090E002C0880F991F6A95D9
:1004D000E2F78095822382BB84E0089581E008954D
:1004E00081E0089584E0089581E0089584E008950E
:1004F0008FB780688FBF0895853008F088C063305B
:1005000008F087C0433008F086C0611132C08230E5
:1005100081F018F4813031F020C0833089F08430CC
:10052000B1F01BC085B78E7F85BF85B78D7F85BF36
:1005300014C085B7816085BF85B78D7F85BF0DC02D
:1005400085B78E7F85BF85B7826085BF06C085B7BA
:10055000816085BF85B7826085BF413029F48BB744
:1005600080648BBF84E008958BB78F7B8BBF84E062
:100570000895613091F5823081F018F4813031F0C6
:1005800020C0833089F08430B1F01BC085B78B7FE9
:1005900085BF85B7877F85BF14C085B7846085BF59
:1005A00085B7877F85BF0DC085B78B7F85BF85B732
:1005B000886085BF06C085B7846085BF85B78860C1
:1005C00085BF413029F48BB780688BBF84E00895E4
:1005D0008BB78F778BBF84E008956230F1F483305E
:1005E00019F0843029F007C084B78F7B84BF03C023
:1005F00084B7806484BF413029F48BB780628BBF9D
:1006000084E008958BB78F7D8BBF84E0089581E0EF
:10061000089581E0089581E0089581E008950097AC
:1006200031F0909372008093710084E0089582E02D
:1006300008951F920F920FB60F9211242F933F939C
:100640004F935F936F937F938F939F93AF93BF93DA
:10065000EF93FF93E0917100F0917200309709F0F1
:100660000995FF91EF91BF91AF919F918F917F91EC
:100670006F915F914F913F912F910F900FBE0F900F
:100680001F9018951F920F920FB60F9211242F935F
:100690003F934F935F936F937F938F939F93AF930A
:1006A000BF93EF93FF93E0916F00F091700030974C
:1006B00009F00995FF91EF91BF91AF919F918F91B3
:1006C0007F916F915F914F913F912F910F900FBE4E
:1006D0000F901F9018951F920F920FB60F92112432
:1006E0002F933F934F935F936F937F938F939F933A
:1006F000AF93BF93EF93FF93E0916D00F0916E0085
:10070000309709F00995FF91EF91BF91AF919F91BB
:100710008F917F916F915F914F913F912F910F90AA
:100720000FBE0F901F901895FC018081882319F04F
:10073000813051F15DC083B7806883BF828182BF01
:100740008181813069F483B78F7B83BF83B78860F1
:1007500083BF87818CBF89B7826089BF84E00EC068
:1007600081110BC083B78F7B83BF83B7877F83BF24
:1007700089B7816089BF84E001C081E093B7268199
:10078000987F922B93BF08958FB584608FBD8FB5EE
:1007900088608FBD82819381A481B5819DBD8CBD10
:1007A0008181811105C089B7846089BF84E01AC046
:1007B0008130B9F42EB590E0880F991F880F991FEA
:1007C000880F991F922F977F892B8EBD87819085E7
:1007D000A185B2859BBD8ABD89B7806189BF84E050
:1007E00001C081E09EB52681987F922B9EBD089521
:1007F00084E00895613061F018F0623089F014C02F
:100800000097A1F090937A008093790084E0089596
:10081000009771F0909378008093770084E00895BA
:10082000892B41F482E0089584E0089582E00895E0
:1008300082E0089584E008951F920F920FB60F9200
:1008400011242F933F934F935F936F937F938F93D5
:100850009F93AF93BF93EF93FF93E0917900F09153
:100860007A00309709F00995FF91EF91BF91AF9110
:100870009F918F917F916F915F914F913F912F91B8
:100880000F900FBE0F901F9018951F920F920FB6EA
:100890000F9211242F933F934F935F936F937F9306
:1008A0008F939F93AF93BF93EF93FF93E091790062
:1008B000F0917A00309709F00995FF91EF91BF917F
:1008C000AF919F918F917F916F915F914F913F91E8
:1008D0002F910F900FBE0F901F9018951F920F929F
:1008E0000FB60F9211242F933F934F935F936F9303
:1008F0007F938F939F93AF93BF93EF93FF93E09179
:100900007700F0917800309709F00995FF91EF9109
:10091000BF91AF919F918F917F916F915F914F9117
:100920003F912F910F900FBE0F901F9018951F921F
:100930000F920FB60F9211242F933F934F935F9313
:100940006F937F938F939F93AF93BF93EF93FF9397
:100950008091730090917400A0917500B091760021
:100960000196A11DB11D8093730090937400A09314
:100970007500B093760084369105A105B10589F420
:10098000E0917700F0917800309759F009951DBCFF
:100990001CBC10927300109274001092750010929B
:1009A0007600FF91EF91BF91AF919F918F917F91D1
:1009B0006F915F914F913F912F910F900FBE0F90CC
:0809C0001F901895F894FFCF79
:0C09C8000101000000000250C30000000C
:00000001FF
